:100000000000011025310000ED010000F1010000A9
:100010000D0200001102000015020000CAC4FEEF2C
:100020000000000000000000000000006109000066
:100030001D02000000000000E10900002502000090
:100040001D3200001D3200001D3200001D32000074
:100050001D3200001D3200001D3200001D32000064
:100060001D3200001D3200001D3200001D32000054
:100070001D3200001D3200001D3200001D32000044
:100080001D3200001D3200001D3200001D32000034
:100090001D3200001D3200001D3200001D32000024
:1000A0001D3200001D3200001D3200001D32000014
:1000B0001D3200001D3200001D3200001D32000004
:1000C0001D3200001D3200001D3200001D320000F4
:1000D0001D3200001D3200001D3200001D320000E4
:1000E0001D320000E8630000000000103003000033
:1000F000E863000000000020000000003003001052
:1001000020020000000000200000000000B585B0C3
:1001100000230393039A13465B0013449B00174A82
:100120001344174A934225D21449039A13465B009D
:1001300013449B000B441B6802931049039A134617
:100140005B0013449B000B445B6801930B49039ACB
:1001500013465B0013449B000B4408331B689B0051
:100160000093009A0299019804F07CFD039B0133EF
:100170000393CFE700BF05B05DF804FBE400000087
:10018000FC00000000B585B000230393039BDB0057
:100190000E4A13440E4A934214D20C4A039B52F85F
:1001A00033300293094A039BDB0013445B689B00D6
:1001B0000193019A0021029804F05FFD039B013333
:1001C0000393E3E700BF05B05DF804FBFC0000000B
:1001D0000C010000DFF8A000016841F4700101602B
:1001E000BFF34F8FBFF36F8F00BF704700BFFDE7B6
:1001F0001EF0040F0CBFEFF30880EFF30980816954
:10020000004A10475531000000BF704700BFFDE7AE
:1002100000BFFDE700BFFDE700BFFDE700BFFDE752
:1002200000BFFDE710B50E4BD3E900124B1C42F1A5
:1002300000040B4AC2E900340A4B1B68002B0AD1A8
:1002400040F23923084A0949094801F0FDFC0948F0
:1002500002F0BEFE02E0034B1B68984700BF10BDD2
:100260003005001068030010105C00008C5A00007C
:10027000A45900003401001088ED00E0FFFFFFFFEB
:10028000FFFFFFFFFFFFFFFFFFFFFFFFFFFFFFFF7E
:10029000FFFFFFFFFFFFFFFFFFFFFFFFFFFFFFFF6E
:1002A000FFFFFFFFFFFFFFFFFFFFFFFFFFFFFFFF5E
:1002B000FFFFFFFFFFFFFFFFFFFFFFFFFFFFFFFF4E
:1002C000FFFFFFFFFFFFFFFFFFFFFFFFFFFFFFFF3E
:1002D000FFFFFFFFFFFFFFFFFFFFFFFFFFFFFFFF2E
:1002E000FFFFFFFFFFFFFFFFFFFFFFFFFFFFFFFF1E
:1002F000FFFFFFFFFFFFFFFFFFFFFFFFFFFFFFFF0E
:10030000F8B500BFF8BC08BC9E4670474903000022
:10031000D1030000C9320000F8B500BFF8BC08BC2A
:100320009E46704710B5054C237833B9044B13B182
:100330000448AFF300800123237010BD3003001088
:1003400000000000E863000008B5034B1BB103493F
:100350000348AFF3008008BD000000003403001024
:10036000E863000082B001900091019B012B27D12E
:10037000009B4FF6FF72934222D1134B1B68183338
:10038000124A1360104B1B681C33104A53600E4B0B
:100390001B6820330D4A93600B4B1B6824330B4AB8
:1003A000D360094B1B684033084A1361064B1B6836
:1003B0004433064A5361044B1B684833034A936134
:1003C00000BF02B0704700BF180000104C030010BF
:1003D00008B54FF6FF710120FFF7C4FF08BDFFFF0E
:1003E00000B585B0019000230393019B002B08D03A
:1003F00000F018F80021019800F0D4F900F01CF882
:100400000390039B002B07D1054B4FF080521A60DD
:10041000BFF34F8FBFF36F8F00BF05B05DF804FBD4
:1004200004ED00E0034B1B680133024A136000BF78
:10043000704700BF2404001000B585B0002303936B
:100440000023029300F0A0FA384B1B68013B374AA7
:100450001360364B1B68002B61D1354B1B68002B9A
:100460005DD02EE0334BDB68DB680393039B1833CE
:10047000184600F04EFA039B0433184600F049FA80
:10048000039BDB6A01229A402B4B1B6813432A4AC9
:100490001360039BDA6A13469B0013449B00274AB0
:1004A0001A44039B04331946104600F0DFF9039BFE
:1004B000DA6A234B1B68DB6A9A4202D3214B012282
:1004C0001A601C4B1B68002BCCD1039B002B01D066
:1004D00000F02EF91C4B1B680193019B002B10D0E0
:1004E00000F036F80346002B02D0164B01221A60AA
:1004F000019B013B0193019B002BF1D1124B002288
:100500001A60104B1B68002B09D0012302930F4B7C
:100510004FF080521A60BFF34F8FBFF36F8F00F020
:1005200047FA029B184605B05DF804FB240400104E
:1005300004040010DC0300100C0400107003001011
:100540006C030010180400101404001004ED00E007
:1005500000B587B000230593484B1B68002B7CD166
:10056000474B1B6801330493454A049B1360049B6B
:10057000002B10D1434B1B680393434B1B68414A2C
:100580001360414A039B1360404B1B6801333F4A91
:10059000136000F0CDF83E4B1B68049A9A424DD38D
:1005A000384B1B681B68002B01D1012300E000239E
:1005B000002B04D0364B4FF0FF321A603EE0314B37
:1005C0001B68DB68DB680293029B5B680193049AFB
:1005D000019B9A4203D22E4A019B13602EE0029B9C
:1005E0000433184600F095F9029B9B6A002B04D057
:1005F000029B1833184600F08CF9029BDB6A01223B
:100600009A40244B1B681343224A1360029BDA6A08
:1006100013469B0013449B001F4A1A44029B043359
:100620001946104600F022F9029BDA6A1B4B1B6840
:10063000DB6A9A42B4D301230593B1E7174B1B68D9
:10064000DA6A154913469B0013449B000B441B6850
:10065000012B07D90123059304E0114B1B680133DB
:100660000F4A13600F4B1B68002B01D00123059329
:10067000059B184607B05DF804FB00BF240400107A
:1006800008040010D4030010D80300101C0400104C
:10069000200400100C040010700300106C03001004
:1006A000140400101804001084B01C4B1B68002BAD
:1006B00003D01B4B01221A602CE0194B00221A6058
:1006C000184B1B680193019BB3FA83F38DF8033039
:1006D0009DF80330C3F11F030393039A13469B0055
:1006E00013449B00104A13440293029B5B685A68B0
:1006F000029B5A60029B5A68029B08339A4204D1BB
:10070000029B5B685A68029B5A60029B5B68DB68CD
:10071000064A136000BF04B0704700BF24040010F5
:10072000180400100C040010700300106C0300107B
:1007300082B00D4B1B681B68002B01D1012300E028
:100740000023002B04D0094B4FF0FF321A6008E061
:10075000054B1B68DB68DB680193019B5B68034A00
:10076000136000BF02B07047D403001020040010D3
:1007700082B00A4B1B68002B02D10123019308E0D1
:10078000074B1B68002B02D10223019301E00023D9
:100790000193019B184602B0704700BF100400107F
:1007A0002404001000B585B001900091284B1B680F
:1007B0000393284B1B680433184600F0AAF803463D
:1007C000002B0BD1234B1B68DB6A012202FA03F3D7
:1007D000DA43214B1B6813401F4A1360019BB3F19E
:1007E000FF3F0AD1009B002B07D01A4B1B68043334
:1007F00019461A4800F03AF826E0039A019B134480
:100800000293144B1B68029A5A60029A039B9A4205
:1008100009D2134B1A680F4B1B6804331946104654
:1008200000F043F810E00F4B1A680A4B1B680433C2
:100830001946104600F039F80B4B1B68029A9A4291
:1008400002D2094A029B136000BF05B05DF804FBA9
:10085000080400106C0300100C040010F0030010DA
:10086000D8030010D40300102004001084B00190BD
:100870000091019B5B680393009B039A5A60039B62
:100880009A68009B9A60039B9B68009A5A60039B3E
:10089000009A9A60009B019A1A61019B1B685A1C7E
:1008A000019B1A6000BF04B0704784B001900091B2
:1008B000009B1B680293029BB3F1FF3F03D1019B96
:1008C0001B6903930CE0019B0833039302E0039B35
:1008D0005B680393039B5B681B68029A9A42F6D29B
:1008E000039B5A68009B5A60009B5B68009A9A6061
:1008F000009B039A9A60039B009A5A60009B019A9E
:100900001A61019B1B685A1C019B1A6000BF04B04E
:10091000704784B00190019B1B690393019B5B6846
:10092000019A92689A60019B9B68019A52685A608A
:10093000039B5B68019A9A4203D1019B9A68039BCF
:100940005A60019B00221A61039B1B685A1E039B7D
:100950001A60039B1B68184604B07047FFFFFFFF37
:10096000074B19680868B0E8F04F80F30988BFF3B7
:100970006F8F4FF0000080F311887047AFF3008055
:100980006C03001000BF00BF82B04FF0280383F358
:100990001188BFF36F8FBFF34F8F0193034B1B6819
:1009A0000133024A136000BF02B0704724000010F8
:1009B00082B0084B1B68013B064A1360054B1B685D
:1009C000002B04D100230193019B83F3118800BF06
:1009D00002B0704724000010FFFFFFFFFFFFFFFF82
:1009E000EFF30980BFF36F8F154B1A681EF0100FDD
:1009F00008BF20ED108A20E9F04F10602DE90900B2
:100A00004FF0280080F31188BFF34F8FBFF36F8F33
:100A1000FFF74AFE4FF0000080F3118809BC196807
:100A20000868B0E8F04F1EF0100F08BFB0EC108A55
:100A300080F30988BFF36F8F704700BFAFF300806A
:100A40006C03001000BF00BF00B583B04FF0280357
:100A500083F31188BFF36F8FBFF34F8F0193FFF7BD
:100A600077FD0346002B03D0064B4FF080521A60EF
:100A700000230093009B83F3118800BF03B05DF84F
:100A800004FB00BF04ED00E084B0029101920093EA
:100A900003468DF80F30019A009B9A4205D2029AC4
:100AA000019B13449DF80F201A7000BF04B07047DB
:100AB00084B002910192009303468DF80F3000BF7D
:100AC00004B0704700B585B00291019200930346CF
:100AD0008DF80F309DF80F30002B04D09DF80F30AB
:100AE000184601F03BFA00BF05B05DF804FB84B086
:100AF0000190019B0393039B1B78002B03D0039B66
:100B000001330393F7E7039A019BD31A184604B005
:100B1000704782B003468DF807309DF807302F2BC1
:100B200005D99DF80730392B01D8012300E00023B7
:100B3000184602B0704700B585B0019000230393BA
:100B4000019B1B681B781846FFF7E3FF0346002B49
:100B50000FD0039A13469B0013445B001846019B79
:100B60001B68591C019A11601B780344303B0393A6
:100B7000E6E7039B184605B05DF804FB10B588B0A6
:100B80000390029101920093019B0593109B03F047
:100B90000203002B0ED10B9A0E9B9A420AD20B9B9A
:100BA0001F2B07D80B9B5A1C0B920A9A1344302216
:100BB0001A70EBE7109B03F00203002B13D1109B7C
:100BC00003F00103002B0ED00B9A0F9B9A420AD21E
:100BD0000B9B1F2B07D80B9B5A1C0B920A9A134492
:100BE00030221A70E6E7109B03F01003002B58D058
:100BF000109B03F48063002B16D10B9B002B13D0AA
:100C00000B9A0E9B9A4203D00B9A0F9B9A420BD1E0
:100C10000B9B013B0B930B9B002B05D00D9B102BCB
:100C200002D10B9B013B0B930D9B102B0FD1109B03
:100C300003F02003002B0AD10B9B1F2B07D80B9B23
:100C40005A1C0B920A9A134478221A701FE00D9BCB
:100C5000102B0FD1109B03F02003002B0AD00B9B0D
:100C60001F2B07D80B9B5A1C0B920A9A134458222D
:100C70001A700CE00D9B022B09D10B9B1F2B06D881
:100C80000B9B5A1C0B920A9A134462221A700B9BFC
:100C90001F2B06D80B9B5A1C0B920A9A1344302226
:100CA0001A700B9B002B14D00B9A0F9B9A4210D1F9
:100CB0009DF83030002B09D1109B03F00403002B6A
:100CC00004D1109B03F00803002B02D00B9B013BC7
:100CD0000B930B9B1F2B24D89DF83030002B07D093
:100CE0000B9B5A1C0B920A9A13442D221A7018E07F
:100CF000109B03F00403002B07D00B9B5A1C0B9294
:100D00000A9A13442B221A700BE0109B03F008037D
:100D1000002B06D00B9B5A1C0B920A9A13442022DC
:100D20001A70109B03F00203002B16D1109B03F0E6
:100D30000103002B11D10B9B0793079A0F9B9A423B
:100D40000BD2019A531C0193039C009B0299202013
:100D5000A047079B01330793EFE700230693069A0A
:100D60000B9B9A4211D20B9A069BD31A013B0A9A0B
:100D700013441878019A531C0193039C009B029919
:100D8000A047069B01330693E9E7109B03F002039B
:100D9000002B0ED0019A059BD31A0F9A9A4208D9BC
:100DA000019A531C0193039C009B02992020A047A9
:100DB000F0E7019B184608B010BD00B597B00B9046
:100DC0000A910992089300231593189B002B03D1D5
:100DD0001D9B23F010031D931D9B03F48063002BC8
:100DE00002D0189B002B33D0189B1A9AB3FBF2F257
:100DF0001A9901FB02F29B1A8DF853309DF853307B
:100E0000092B04D89DF853303033DAB20DE01D9B26
:100E100003F02003002B01D0412200E061229DF865
:100E200053301344DBB20A3BDAB2159B591C1591BF
:100E300016A90B4403F8282C189A1A9BB2FBF3F35B
:100E40001893189B002B03D0159B1F2B00D8CBE7C2
:100E50001D9B06931C9B05931B9B04931A9B03935A
:100E60009DF864300293159B01930CAB0093089B93
:100E7000099A0A990B98FFF781FE0346184617B0A6
:100E80005DF804FB10B596B00B900A910992089397
:100E900000231593DDE91834234303D1209B23F06D
:100EA00010032093209B03F48063002B03D0DDE923
:100EB0001834234339D0DDE91801DDE91C2303F0A0
:100EC000FBFC1C4613468DF853309DF85330092B1C
:100ED00004D89DF853303033DAB20DE0209B03F094
:100EE0002003002B01D0412200E061229DF8533005
:100EF0001344DBB20A3BDAB2159B591C159116A9B3
:100F00000B4403F8282CDDE91C23DDE9180103F06C
:100F1000D3FC03460C46CDE91834DDE918342343ED
:100F200003D0159B1F2B00D8C5E71C9B209A069267
:100F30001F9A05921E9A049203939DF868300293BB
:100F4000159B01930CAB0093089B099A0A990B9887
:100F5000FFF714FE0346184616B010BD10B59AB040
:100F600005900491039202938DED000B039B119366
:100F7000DDE9000103F050FC0346199300231893A8
:100F80004FF0000310934FF09E430F9300238DF812
:100F90005F30DDED197AF5EEC07AF1EE10FA0AD580
:100FA00001238DF85F309FEDA77ADDED197A77EE9A
:100FB000677ACDED197A1E9B03F48063002B01D173
:100FC00006231C93189B1F2B0ED81C9B092B0BD997
:100FD000189B5A1C18921AAA1344302203F8502C5A
:100FE0001C9B013B1C93EDE7DDED197AFDEEE77AE2
:100FF00017EE903A1693169B07EE903AF8EEE77AC2
:101000009DED197A37EE677A8F4A1C9B9B0013443B
:10101000D3ED007A67EE277ACDED0E7ADDED0E7A0C
:10102000FCEEE77A17EE903A1593159B07EE903A8F
:10103000F8EE677A9DED0E7A77EE677ACDED107A4D
:10104000DDED107AB6EE007AF4EEC77AF1EE10FA22
:1010500018DD159B01331593159B07EE903AB8EEFA
:10106000677A794A1C9B9B001344D3ED007AB4EE57
:10107000E77AF1EE10FA19DB00231593169B013382
:10108000169313E0DDED107AB6EE007AF4EE477AAF
:10109000F1EE10FA0AD1159B002B04D0159B03F03A
:1010A0000103002B02D0159B01331593DDED197A56
:1010B0009FED667AF4EEC77AF1EE10FA01DD0023B7
:1010C00054E11C9B002B29D1169B07EE903AF8EEB9
:1010D000E77A9DED197A77EE677ACDED107ADDED3E
:1010E000107AB6EE007AF4EEC77AF1EE10FA03DD6C
:1010F000169B013316935FE0DDED107AB6EE007AB1
:10110000F4EE477AF1EE10FA56D1169B03F0010384
:10111000002B51D0169B013316934DE01C9B14936A
:10112000189B1F2B27D8149B013B14931599484BF0
:10113000A3FB0123DA0813469B0013445B00CA1A81
:10114000D3B23033D9B2189B5A1C18921AAA13443E
:101150000A4603F8502C159B3D4AA2FB0323DB08EB
:101160001593159B002B0CBF01230023DBB2002B32
:1011700000D1D5E700BF189B1F2B06D8149B5A1E21
:101180001492002B01D0012300E00023002B08D093
:10119000189B5A1C18921AAA1344302203F8502C98
:1011A000E9E7189B1F2B07D8189B5A1C18921AAAFC
:1011B00013442E2203F8502C189B1F2B28D8169A64
:1011C000244B83FB02139910D317C91A0B469B00BB
:1011D0000B445B00D11ACBB23033D9B2189B5A1CE6
:1011E00018921AAA13440A4603F8502C169B194A5F
:1011F00082FB03129210DB17D31A1693169B002B57
:101200000CBF01230023DBB2002B00D1D4E700BFC9
:101210001E9B03F00203002B1ED11E9B03F0010353
:10122000002B19D0189A1D9B9A4215D2189B1F2B80
:1012300012D8189B5A1C18921AAA1344302203F889
:10124000502CE5E700000000CC5500000000004FE6
:10125000CDCCCCCC67666666189A1D9B9A4210D19D
:101260009DF85F30002B09D11E9B03F00403002B77
:1012700004D11E9B03F00803002B02D0189B013BF6
:101280001893189B1F2B27D89DF85F30002B08D090
:10129000189B5A1C18921AAA13442D2203F8502C9A
:1012A0001AE01E9B03F00403002B08D0189B5A1C65
:1012B00018921AAA13442B2203F8502C0CE01E9B00
:1012C00003F00803002B07D0189B5A1C18921AAA87
:1012D0001344202203F8502C1E9B03F00203002B22
:1012E00016D11E9B03F00103002B11D1189B139301
:1012F000139A1D9B9A420BD2039A531C0393059C8D
:10130000029B04992020A047139B01331393EFE71E
:1013100000231293129A189B9A4212D2189A129B87
:10132000D31A013B1AAA134413F8500C039A531C06
:101330000393059C029B0499A047129B01331293CF
:10134000E8E71E9B03F00203002B0ED0039A119BCB
:10135000D31A1D9A9A4208D9039A531C0393059CE9
:10136000029B04992020A047F0E7039B18461AB07F
:1013700010BD00BF30B5A1B00D900C910B920A9337
:1013800000231B930C9B002B01D1A34B0D930A9BB5
:101390001B78002B00F046840A9B1B78252B0DD070
:1013A0000A9B18781B9A531C1B930D9C0B9B0C9942
:1013B000A0470A9B01330A9300F032BC0A9B013319
:1013C0000A9300231F930A9B1B78203B102B57D8AE
:1013D00001A252F823F000BF59140000811400004C
:1013E000811400006D1400008114000081140000BD
:1013F0008114000081140000811400008114000099
:101400008114000045140000811400003114000014
:1014100081140000811400001D1400001F9B43F084
:1014200001031F930A9B01330A9301231C932AE0B3
:101430001F9B43F002031F930A9B01330A9301236E
:101440001C9320E01F9B43F004031F930A9B01336E
:101450000A9301231C9316E01F9B43F008031F937C
:101460000A9B01330A9301231C930CE01F9B43F05A
:1014700010031F930A9B01330A9301231C9302E07C
:1014800000231C9300BF1C9B002B00D09BE7002374
:101490001E930A9B1B781846FFF73BFB0346002B65
:1014A00005D00AAB1846FFF746FB1E9018E00A9BD2
:1014B0001B782A2B14D1249B1A1D24921B68169387
:1014C000169B002B07DA1F9B43F002031F93169B0A
:1014D0005B421E9301E0169B1E930A9B01330A9305
:1014E00000231D930A9B1B782E2B24D11F9B43F4B2
:1014F00080631F930A9B01330A930A9B1B7818464B
:10150000FFF707FB0346002B05D00AAB1846FFF791
:1015100012FB1D900FE00A9B1B782A2B0BD1249BFA
:101520001A1D24921B681593159B23EAE3731D93E0
:101530000A9B01330A930A9B1B78683B122B67D8DE
:1015400001A252F823F000BFBB15000011160000E5
:10155000F11500001116000095150000111600008D
:1015600011160000111600001116000011160000DF
:101570001116000011160000E11500001116000000
:1015800011160000111600001116000011160000BF
:10159000011600001F9B43F480731F930A9B0133C5
:1015A0000A930A9B1B786C2B34D11F9B43F4007366
:1015B0001F930A9B01330A932CE01F9B43F0800387
:1015C0001F930A9B01330A930A9B1B78682B25D132
:1015D0001F9B43F040031F930A9B01330A931DE0B6
:1015E0001F9B43F480731F930A9B01330A9316E0F9
:1015F0001F9B43F400731F930A9B01330A930EE071
:101600001F9B43F480731F930A9B01330A9306E0E8
:1016100000BF04E000BF02E0B10A000000BF0A9B67
:101620001B78253B532B00F2EE8201A252F823F0E7
:10163000EF1B0000071C0000071C0000071C000037
:10164000071C0000071C0000071C0000071C00000E
:10165000071C0000071C0000071C0000071C0000FE
:10166000071C0000071C0000071C0000071C0000EE
:10167000071C0000071C0000071C0000071C0000DE
:10168000071C0000071C0000071C0000071C0000CE
:10169000071C0000071C0000071C0000071C0000BE
:1016A000071C0000071C0000071C0000071C0000AE
:1016B000071C00000D1A0000071C0000071C00009A
:1016C000071C0000071C0000071C0000071C00008E
:1016D000071C0000071C0000071C0000071C00007E
:1016E000071C0000071C0000071C0000071C00006E
:1016F000071C0000071C0000071C000081170000E9
:10170000071C0000071C0000071C0000071C00004D
:10171000071C0000071C0000071C0000071C00003D
:10172000071C000081170000491A00008117000003
:10173000071C00000D1A0000071C0000071C000019
:1017400081170000071C0000071C0000071C000098
:10175000071C0000071C000081170000A71B0000E9
:10176000071C0000071C0000D11A0000071C000025
:1017700081170000071C0000071C000081170000F3
:101780000A9B1B78782B03D00A9B1B78582B02D11D
:1017900010231A9313E00A9B1B786F2B02D10823A6
:1017A0001A930CE00A9B1B78622B02D102231A9336
:1017B00005E00A231A931F9B23F010031F930A9B33
:1017C0001B78582B03D11F9B43F020031F930A9BC8
:1017D0001B78692B07D00A9B1B78642B03D01F9BB7
:1017E00023F00C031F931F9B03F48063002B03D093
:1017F0001F9B23F001031F930A9B1B78692B04D0C6
:101800000A9B1B78642B40F08D801F9B03F40073B0
:10181000002B2ED0249B073323F0070303F108028B
:101820002492D3E90034CDE90E34DDE90E34002BE7
:1018300074F1000202DA5B4264EB4404194622466A
:101840000F9BDB0FD8B21A9B4FF000041F9D089529
:101850001E9D07951D9D0695CDE904340290CDE9A6
:1018600000120B9B1B9A0C990D98FFF70BFB1B901A
:10187000C8E01F9B03F48073002B1ED0249B1A1D0D
:1018800024921B681193119B002BB8BF5B42194631
:10189000119BDB0FDBB21F9A05921E9A04921D9AD0
:1018A00003921A9A0292019300910B9B1B9A0C9936
:1018B0000D98FFF782FA1B90A4E01F9B03F04003F2
:1018C000002B05D0249B1A1D24921B68DBB20EE06E
:1018D0001F9B03F08003002B05D0249B1A1D24922C
:1018E0001B681BB203E0249B1A1D24921B681293F1
:1018F000129B002BB8BF5B421946129BDB0FDBB279
:101900001F9A05921E9A04921D9A03921A9A0292A5
:10191000019300910B9B1B9A0C990D98FFF74DFAC0
:101920001B906FE01F9B03F40073002B20D0249BBF
:10193000073323F0070303F108022492D3E90034AC
:101940001A9A11464FF000021F9808901E980790AF
:101950001D980690CDE9041200220292CDE90034D0
:101960000B9B1B9A0C990D98FFF78CFA1B9049E082
:101970001F9B03F48073002B16D0249B1A1D249206
:101980001B681F9A05921E9A04921D9A03921A9A36
:1019900002920022019200930B9B1B9A0C990D98C6
:1019A000FFF70BFA1B902DE01F9B03F04003002B69
:1019B00005D0249B1A1D24921B68DBB20EE01F9BEE
:1019C00003F08003002B05D0249B1A1D24921B6872
:1019D0009BB203E0249B1A1D24921B6813931F9B48
:1019E00005931E9B04931D9B03931A9B0293002354
:1019F0000193139B00930B9B1B9A0C990D98FFF777
:101A0000DCF91B900A9B01330A9309E1249B0733FD
:101A100023F0070303F10802249293ED007B1F9B40
:101A200002931E9B01931D9B0093B0EE470AF0EEBC
:101A3000670A0B9B1B9A0C990D98FFF78FFA1B9066
:101A40000A9B01330A93EBE0012319931F9B03F0D8
:101A50000203002B13D1199B5A1C19921E9A9A4209
:101A60008CBF01230023DBB2002B08D01B9A531C30
:101A70001B930D9C0B9B0C992020A047EBE7249B0C
:101A80001A1D24921B68D8B21B9A531C1B930D9CE1
:101A90000B9B0C99A0471F9B03F00203002B13D054
:101AA000199B5A1C19921E9A9A428CBF012300233B
:101AB000DBB2002B08D01B9A531C1B930D9C0B9B75
:101AC0000C992020A047EBE70A9B01330A93A7E07B
:101AD000249B1A1D24921B6818931898FFF707F887
:101AE00017901F9B03F48063002B07D0179A1D9B50
:101AF0009A4201D2179B00E01D9B17931F9B03F096
:101B00000203002B13D1179B5A1C17921E9A9A425C
:101B10008CBF01230023DBB2002B08D01B9A531C7F
:101B20001B930D9C0B9B0C992020A047EBE7189B67
:101B30001B78002B0BD01F9B03F48063002B04D079
:101B40001D9B5A1E1D92002B01D0012300E0002393
:101B5000002B0BD0189B5A1C189218781B9A531CF8
:101B60001B930D9C0B9B0C99A047E0E71F9B03F078
:101B70000203002B13D0179B5A1C17921E9A9A42ED
:101B80008CBF01230023DBB2002B08D01B9A531C0F
:101B90001B930D9C0B9B0C992020A047EBE70A9B05
:101BA00001330A933CE008231E931F9B43F021035B
:101BB0001F9300238DF85330249B1A1D24921B6819
:101BC0001A461F9B05931E9B04931D9B0393102392
:101BD00002930023019300920B9B1B9A0C990D9882
:101BE000FFF7EBF81B900A9B01330A9318E01B9A4E
:101BF000531C1B930D9C0B9B0C992520A0470A9B03
:101C000001330A930CE00A9B18781B9A531C1B9310
:101C10000D9C0B9B0C99A0470A9B01330A9300BFB4
:101C2000FFF7B5BB1B9A0B9B9A4202D30B9B5A1E24
:101C300000E01B9A0D9C0B9B0C990020A0471B9B5E
:101C4000184621B030BD00BF0FB400B587B009AB56
:101C5000049303A9049B0093089B4FF0FF320548AF
:101C6000FFF788FB0590059B184607B05DF804EB6D
:101C700004B07047C50A000000B587B00590049114
:101C800003920293029B0093039B049A05990448D4
:101C9000FFF770FB0346184607B05DF804FB00BF72
:101CA000890A000000B585B0019000917C2003F006
:101CB00095F800230393039A009B9A4218D2019A45
:101CC000039B13441B78184602F0A2FF0346002B27
:101CD00007D0019A039B13441B78184603F07EF843
:101CE00002E02E2003F07AF8039B01330393E2E72E
:101CF000034800F045F900BF05B05DF804FB00BFE4
:101D0000F455000000B585B00190009100230393C5
:101D1000039B0F2B19D8039A009B9A4208D2019A71
:101D2000039B13441B7819460B48FFF78DFF02E015
:101D30000A48FFF789FF039B072B02D1202003F0FD
:101D40004DF8039B01330393E2E7202003F046F8AC
:101D500000BF05B05DF804FBF85500000056000018
:101D600000B587B001900091019B04930023059377
:101D700000230593059A009B9A4221D205991448A5
:101D8000FFF762FF059B0F33009A9A4204D2059A2F
:101D9000009BD31A0F3300E010230393049A059B92
:101DA000134403991846FFF7ADFF049A059B1344AB
:101DB00003991846FFF776FF059B10330593D9E783
:101DC00000990448FFF740FF00BF07B05DF804FB2F
:101DD000045600000C56000000B583B00E4B1B6883
:101DE00019460E48FFF730FF002301930A4B1B688A
:101DF000019A9A420CD20A4A019B52F823301A46A1
:101E000001990848FFF720FF019B01330193EDE79B
:101E100000BF03B05DF804FB280500101856000051
:101E2000280400102C56000082B0019001231846AF
:101E300002B0704782B0019000BFFDE70123184651
:101E4000704782B0019000914FF0FF33184602B006
:101E5000704782B001900091009B4FF400525A608D
:101E60000023184602B0704784B001900C4B1B68E9
:101E700003930B4B1A68019B13441A46094BD31A60
:101E8000B3F5004F01DD00230393054B1A68019B56
:101E90001344034A1360039B184604B0704700BF05
:101EA000300000105005001082B001904FF0FF3359
:101EB000184602B07047FFFF00B587B0039002914B
:101EC000019200230593059A019B9A420BDA084B75
:101ED0001B68059A02990A44127810469847059B98
:101EE00001330593EFE7019B184607B05DF804FB4B
:101EF0002800001084B0039002910192002318463C
:101F000004B0704700B585B0039002910192039B25
:101F1000002B19D1012301930E4B1B6898470346F0
:101F2000DAB2029B1A70029B1B780D2B06D10A4B6A
:101F30001B680D209847029B0A221A70064B1B68EB
:101F4000029A127810469847019B184605B05DF832
:101F500004FB00BF2C0000102800001000B583B067
:101F600003468DF80730054B1B689DF80720104687
:101F7000984700BF03B05DF804FB00BF28000010C5
:101F800000B583B00190019800F00AFD00231846C7
:101F900003B05DF804FBFFFF70B584B003900B46FF
:101FA0008DF80B30134B1B68039A12791046039A75
:101FB0005279114642010A4453F822109DF80B3021
:101FC00003F007020B4B1C68039B1B791E46039B07
:101FD0005B791D460323009313460022039800F00B
:101FE000E9F9024673012B4444F8232000BF04B0F2
:101FF00070BD00BF1C00001070B586B003900B468A
:102000008DF80B309DF80B308DF81730134B1B6893
:10201000039A12791046039A5279114642010A44F2
:1020200053F822109DF8173003F003020B4B1C6885
:10203000039B1B791E46039B5B791D46022300937D
:1020400013460322039800F0B5F9024673012B44AE
:1020500044F8232000BF06B070BD00BF1C00001074
:1020600070B584B003900B468DF80B30124B1B6893
:10207000039A12791046039A5279114642010A4492
:1020800053F822109DF80B200B4B1C68039B1B7907
:102090001E46039B5B791D460123009313460522D0
:1020A000039800F087F9024673012B4444F823207B
:1020B00000BF04B070BD00BF1C00001070B584B03C
:1020C00003900B468DF80B30124B1B68039A127964
:1020D0001046039A5279114642010A4453F82210DD
:1020E0009DF80B200B4B1C68039B1B791E46039B22
:1020F0005B791D460123009313460622039800F0E6
:1021000059F9024673012B4444F8232000BF04B060
:1021100070BD00BF1C00001070B584B003900B466A
:102120008DF80B30144B1B68039A12791046039AF2
:102130005279114642010A4453F822109DF80B309F
:1021400083F00103DBB21A460B4B1C68039B1B791F
:102150001E46039B5B791D4601230093134607220D
:10216000039800F027F9024673012B4444F823201A
:1021700000BF04B070BD00BF1C00001070B584B07B
:1021800003900B468DF80B30144B1B68039A1279A1
:102190001046039A5279114642010A4453F822101C
:1021A0009DF80B3083F00103DBB21A460B4B1C6821
:1021B000039B1B791E46039B5B791D4601230093FD
:1021C00013460822039800F0F5F8024673012B44E9
:1021D00044F8232000BF04B070BD00BF1C000010F5
:1021E00070B584B003900B468DF80B30124B1B6812
:1021F000039A12791046039A5279114642010A4411
:1022000053F822109DF80B200B4B1C68039B1B7985
:102210001E46039B5B791D4601230093134609224A
:10222000039800F0C7F8024673012B4444F82320BA
:1022300000BF04B070BD00BF1C00001070B584B0BA
:1022400003900B468DF80B30144B1B68039A1279E0
:102250001046039A5279114642010A4453F822105B
:102260009DF80B3083F00103DBB21A460B4B1C6860
:10227000039B1B791E46039B5B791D46012300933C
:1022800013460822039800F095F8024673012B4488
:1022900044F8232000BF04B070BD00BF1C00001034
:1022A00070B584B003900B468DF80B30124B1B6851
:1022B000039A12791046039A5279114642010A4450
:1022C00053F822109DF80B200B4B1C68039B1B79C5
:1022D0001E46039B5B791D4601230093134609228A
:1022E000039800F067F8024673012B4444F823205A
:1022F00000BF04B070BD00BF1C00001070B584B0FA
:1023000003900B468DF80B30124B1B68039A127921
:102310001046039A5279114642010A4453F822109A
:102320009DF80B200B4B1C68039B1B791E46039BDF
:102330005B791D460123009313460A22039800F09F
:1023400039F8024673012B4444F8232000BF04B03F
:1023500070BD00BF1C00001070B584B003900B4628
:102360008DF80B30124B1B68039A12791046039AB2
:102370005279114642010A4453F822109DF80B206D
:102380000B4B1C68039B1B791E46039B5B791D4608
:102390000123009313461022039800F00BF8024625
:1023A00073012B4444F8232000BF04B070BD00BF6C
:1023B0001C00001086B00390029101920093069BCE
:1023C000C3F120034FF0FF3222FA03F30593059A7D
:1023D000019B02FA03F3DB43029A13400293009A33
:1023E000059B1A40019B02FA03F3029A13430293DE
:1023F000029B184606B0704788B001908DED000A28
:10240000019B00221A60019B00225A60019B01225D
:102410009A6000238DF81F3000230693069B0E2B35
:1024200052DC9DF81F30002B4ED1069B01330593E3
:10243000059B0E2B44DC9DF81F30002B40D1069BE2
:1024400007EE903AF8EEE77ACDED047A059B07EEB9
:10245000903AF8EEE77ACDED037ADDED046A9DED72
:10246000037AC6EE877AB7EE007A77EE877ACDEDFB
:10247000027ADDED027A9FED167A77EE877A9DED8E
:10248000007AB4EEE77AF1EE10FA15D8DDED027AB3
:102490009FED0F7A77EEC77A9DED007AB4EEE77A7A
:1024A000F1EE10FA08DB069A019B5A60059A019B2F
:1024B0009A6001238DF81F30059B01330593B7E720
:1024C000069B01330693A9E700BF019808B0704747
:1024D000CDCC4C3D82B08DED010ACDED000ADDED95
:1024E000017AB3EE007A27EE877ADDED007A67EEA7
:1024F000277A9FED057AC7EE276AF0EE667AB0EE8E
:10250000670A02B0704700BF001B374C82B08DEDE8
:10251000010ACDED000ADDED017AB3EE007A27EE77
:10252000877ADDED007A67EE277A9FED057AC7EEB0
:10253000276AF0EE667AB0EE670A02B0704700BF15
:10254000001B374C00B587B08DED010A00238DF8D4
:1025500017309DED010A02F02FF98DED040A9DED73
:10256000017ADDED047A77EE677ACDED037ADDED61
:10257000037A9FED0C7AF4EEC77AF1EE10FA0BDBDA
:10258000DDED037A9FED087AF4EEC77AF1EE10FAEA
:1025900002D801238DF817309DF81730184607B080
:1025A0005DF804FBCDCC4CBDCDCC4C3D10B58CB012
:1025B00005908DED040A00230B93059B00221A6001
:1025C000059B00225A60059B01229A604FF0000390
:1025D0000A934FF07F5309934FF07E5308934FF0C7
:1025E000804307930B9B042B00F0BD800B9B042BB7
:1025F00000F2B78001A252F823F000BF11260000BC
:1026000069260000C526000035270000632700006A
:10261000F7EE000A9DED040AFFF75CFF8DED0A0A54
:10262000DDED0A7AB7EE007AF4EEC77AF1EE10FA31
:1026300005D5059B00221A6004230B9392E09DEDC3
:102640000A0AFFF77FFF0346002B0AD0DDED0A7A66
:10265000FCEEE77A17EE902A059B1A6004230B9391
:1026600080E001230B937DE0DDED090A9DED040A76
:10267000FFF730FFF0EE407AB0EE670A02F09CF808
:102680008DED0A0ADDED0A0A9DED040AFFF73EFF13
:102690008DED090ADDED097A9FED357AF4EEC77A02
:1026A000F1EE10FA0BDBDDED097A9FED327AF4EEF4
:1026B000C77AF1EE10FA02D803230B9352E00223FB
:1026C0000B934FE0DDED077AB7EE007A77EE877A6D
:1026D000CDED077ADDED087AB2EE0E7AF4EEC77A28
:1026E000F1EE10FA02DD04230B933BE0DDED077AF7
:1026F000B2EE0E7AF4EEC77AF1EE10FA0FDDDDEDF0
:10270000087AB7EE007A77EE877ACDED087ADDEDBC
:10271000087AB7EE007A77EE877ACDED077ADDEDAD
:10272000086A9DED077AC6EE877ACDED097A012316
:102730000B9317E0059C6B469DED090A1846FFF7C1
:102740005BFE6B4693E8070084E80700DDED0A7A3C
:10275000FCEEE77A17EE902A059B1A6004230B9390
:1027600000E000BF3EE700BF05980CB010BD00BF01
:10277000CDCC8C3F3333F33F00B589B00190019B42
:1027800007EE903AF8EE677ACDED077A02AB9DED51
:10279000070A1846FFF70AFF384B1B68D3F8C42016
:1027A000364B1B6842F00802C3F8C42003238DF89F
:1027B0001B3001238DF81A3080238DF81930304BEF
:1027C0001A682F4B1B681B6804331B6802211046D4
:1027D00098472C4B1A682B4B1B681B6804331B68EB
:1027E000022110469847264B1A68254B1B681B6828
:1027F0001B68012110469847224B1A68214B1B6821
:102800001B681B68012110469847029B1B0A8DF824
:102810001830029B8DF81730049BDBB21B01DAB233
:10282000039BDBB203F00F03DBB213438DF81630CA
:10283000154B1B6880221A73134B1B689DF81820D8
:102840001A71114B1B689DF817201A700E4B1B68EC
:102850009DF8162083F828200B4B1B6803221A735F
:10286000094B1B681B7ADAB2074B1B6842F0010266
:10287000D2B21A7200BF09B05DF804FB500000101C
:10288000480000103C0000104C00001008B54FF04C
:10289000FF3000F003F80346184608BD2DE9104844
:1028A00089B0019000F096F80A460146019B9B46CC
:1028B0004FF0000C1BEB01034CEB0204CDE902349A
:1028C00000F088F8CDE906011E4B1B681B7DDBB2CA
:1028D00003F00103002B09D1DDE90612DDE9023422
:1028E000A24208BF994201D2012300E00023002B3D
:1028F00004D000F06FF8CDE90601E5E7114B1B6845
:102900001B7DDBB203F00103002B09D1DDE90612C8
:10291000DDE90234A24208BF994201D3012300E05D
:102920000023002B03D0FF238DF8173004E0054B64
:102930001B681B788DF817309DF81730184609B0C2
:10294000BDE810884C00001000B583B00190019BD9
:10295000DBB2184600F006F80346184603B05DF8EF
:1029600004FBFFFF82B003468DF807300B4B1B685A
:102970009DF807201A70094B1B681B7DDBB203F022
:102980004003002B0CBF01230023DBB2002B01D03E
:1029900000BFF0E70123184602B070474C0000105A
:1029A00000B585B0019000230393019A039B134463
:1029B0001B78002B0AD0019A039B13441B781846FE
:1029C000FFF7D0FF039B01330393EEE700BF05B091
:1029D0005DF804FB10B4044BD3E9003418462146DB
:1029E0005DF8044B704700BF300500102DE910481A
:1029F00085B00190FDF7BCFE0346022B0CBF0123FE
:102A00000023DBB2002B03D00198FDF7E9FC1CE0AA
:102A1000019B19464FF000020E4BD3E900BC1BEBA3
:102A200001034CEB0204CDE902340A4BD3E9001256
:102A3000DDE90234A24208BF994234BF01230023DA
:102A4000DBB2002B01D000BFEFE700BF05B0BDE84F
:102A5000108800BF3005001082B00190034A019B2E
:102A60001A60019B184602B0704700BFD45A00009C
:102A700000B583B00190019B1846FFF7EDFF054AB2
:102A8000019B1A60019B044A5A60019B184603B0DF
:102A90005DF804FBC45A0000001BB70082B001902F
:102AA0000B46ADF80230074BD3F80C3123F001028E
:102AB000BDF8023003491343C1F80C3100BF02B026
:102AC000704700BF00C00F4082B001900B46ADF8C8
:102AD0000230074BD3F8043123F48072BDF8023082
:102AE00003491343C1F8043100BF02B0704700BF6F
:102AF00000C00F4082B001900B46ADF80230074B8A
:102B0000D3F8083123F44072BDF80230034913436F
:102B1000C1F8083100BF02B0704700BF00C00F40CD
:102B200082B001900B46ADF80230074BD3F8B431B8
:102B300023F44072BDF8023003491343C1F8B431A5
:102B400000BF02B0704700BF00C00F4000B587B0A3
:102B500001900B46ADF802301346ADF80030BDF8D9
:102B60000030B3F5C07F03D2BDF800300C2B0FD876
:102B70009923364A36493748FFF766F83648FFF753
:102B8000FFF9FFF729F93548FFF7FAF900BFFDE72C
:102B900001238DF81730BDF80030BDF80220B3FBDB
:102BA000F2F102FB01F29B1A9BB2002B09D0BDF897
:102BB0000020BDF80230B2FBF3F39BB20133049363
:102BC00007E0BDF80020BDF80230B2FBF3F39BB282
:102BD00004930123ADF80E309DF81730002B2FD051
:102BE000049B9BB2BDF8022012FB03F39BB2BDF81D
:102BF0000E2012FB03F39BB25B00ADF80C30BDF866
:102C00000C309B2B03D900238DF81730E4E7BDF877
:102C10000E305B00ADF80E30BDF80E30072BDBD95F
:102C2000B5230A4A0E490F48FFF70EF80A48FFF786
:102C3000A7F9FFF7D1F80948FFF7A2F900BFFDE7B0
:102C4000049B184607B05DF804FB00BF3C5B000026
:102C50007056000098560000F45600000C57000013
:102C6000845600000458000010B58AB001900B464D
:102C7000ADF802301346ADF800300123ADF81E3038
:102C8000FFF7A8FE0A46014611F57A7342F10004E7
:102C9000CDE90434FFF79EFECDE90801BDF8002020
:102CA000BDF8023019460198FFF750FF0390BDF8B8
:102CB0000220039B02FB03F3029300210198FFF71C
:102CC000EDFE00210198FFF7FFFE00210198FFF7BC
:102CD00011FF00210198FFF723FF364BD3F8843012
:102CE00023F01F02039B013B32491343C1F8843098
:102CF000304BD3F8843023F06003BDF81E2052011E
:102D000011462C4A0B43C2F884302A4BD3F880304A
:102D1000284A43F00103C2F88030264BAA22C3F8A8
:102D20008C20244B5522C3F88C20224BD3F88830BA
:102D300003F48063002B09D1DDE90812DDE90434D6
:102D4000A24208BF994201D2012300E00023002BD8
:102D500004D0FFF73FFECDE90801E6E7154BD3F8B5
:102D6000883003F48063002B09D1DDE90812DDE926
:102D70000434A24208BF994201D3012300E000239A
:102D8000002B0FD0DA230C4A0C490D48FEF75CFFEC
:102D90000C48FFF7F5F8FFF71FF80B48FFF7F0F8BE
:102DA00000BFFDE7BDF80030029AD31A18460AB0FA
:102DB00010BD00BF00C00F40F85A0000205A0000AC
:102DC00040580000F45600000C57000000B583B0D6
:102DD00001900B468DF803309DF803301F2B10D95E
:102DE00040F203130E4A0F490F48FEF72DFF0F481C
:102DF000FFF7C6F8FEF7F0FF0D48FFF7C1F800BF78
:102E0000FDE70C4BD3F8043123F01F029DF803308B
:102E100008491343C1F8043100BF03B05DF804FB57
:102E2000805B0000345A000088580000F45600000F
:102E30000C57000000C00F4082B001900B468DF887
:102E40000330074BD3F8003123F001029DF8033023
:102E500003491343C1F8003100BF02B0704700BFFF
:102E600000C00F4000B583B001900B468DF80330D1
:102E70009DF803301F2B10D940F20F130E4A0F4953
:102E80000F48FEF7E1FE0F48FFF77AF8FEF7A4FFC0
:102E90000D48FFF775F800BFFDE70C4BD3F8A831DC
:102EA00023F01F029DF8033008491343C1F8A831ED
:102EB00000BF03B05DF804FBB05B0000485A00009F
:102EC00088580000F45600000C57000000C00F4066
:102ED00000B583B001900B468DF8033000210198B6
:102EE000FFF7DCFD9DF803300C2B0DD99DF8033066
:102EF0009BB21A460C210198FFF7B6FE4FF4807181
:102F00000198FFF7E1FD06E000210198FFF7DCFDE5
:102F1000019B094A5A6001210198FFF757FF0121DF
:102F20000198FFF79FFF00210198FFF785FF00BF81
:102F300003B05DF804FB00BF001BB70082B0019036
:102F4000019B5B68184602B07047FFFF82B001909A
:102F50000091034A009B136000BF02B0704700BF9E
:102F60006803001084B0019000238DF80F30174BD8
:102F70001B685B68002B14BF01230023DBB2002B0E
:102F80001ED0124B1B6800229A60104B1B681A68F7
:102F90000E4B1B6842F002021A600C4B1B681A6849
:102FA0000A4B1B6842F001021A60084B1B681A6842
:102FB000064B1B6842F004021A6001238DF80F30A3
:102FC0009DF80F30184604B0704700BF2000001075
:102FD00082B00190074B1B6800225A60054B1B68AA
:102FE00000229A60034B1B6800221A6000BF02B0E7
:102FF000704700BF2000001084B001900091009B3A
:10300000002B01D0009B00E001230093104A009B9D
:10301000B2FBF3F3013B03930D4B009AB3FBF2F2C7
:10302000009901FB02F29B1A0293039BB3F1807F8C
:1030300005D36FF07F4303936FF07F430293054BFB
:103040001B68039A5A60029B184604B0704700BF81
:10305000006CDC022000001008B5FDF789FB034678
:10306000022B0CBF01230023DBB2002B03D003494A
:103070000348FFF76BFF00BF08BD00BF490A00000F
:103080003401001000B583B010491148FFF75EFF0E
:103090004FF47A710E48FFF7AFFF0D48FFF762FF5C
:1030A00003468DF807309DF8073083F00103DBB24B
:1030B000002B06D040F27113064A07490748FEF775
:1030C000C3FD00BF03B05DF804FB00BF5930000032
:1030D00034010010DC5A00005C5A0000B8580000AF
:1030E00008B530210748FFF7F3FE01210548FFF737
:1030F000B9FE4FF41640FFF73FFBFFF7C3FF00BFD9
:1031000008BD00BF3805001008B5FCF7FFFFFDF74C
:1031100039F8FDF75FF801F057FDFFF7E1FF00BF59
:1031200008BDFFFF80B584B000AF094BFB60FB68B2
:103130003B603B6883F30988FB687B607B6883F3B3
:103140000888FFF7E1FF00F09FFEB86000BFFDE7D1
:103150000000011000B58FB00590059B1B680D9312
:10316000059B5B680C93059B9B680B93059BDB6839
:103170000A93059B1B690993059B5B690893059B53
:103180009B690793059BDB6906930D9B0C9B0B9B2F
:103190000A9B099B089B079B069B0D9B0C9A0B990E
:1031A0000A98039002910192009340F2E113124AAF
:1031B00012491348FEF748FD099B089A079906989B
:1031C000039002910192009340F2E3130A4A0D49E1
:1031D0000D48FEF739FD40F2E513074A0B490C484C
:1031E000FEF732FD0B48FEF7CBFEFEF7F5FD0A4871
:1031F000FEF7C6FE00BFFDE7E85B0000685A00006E
:10320000F0580000745A000030590000805A000045
:1032100070590000F45600000C57000000B585B04E
:10322000164B5B688DF80F309DF80F30103B144A39
:1032300052F823300293029B124A934217D19DF811
:103240000F309DF80F20103A0192009340F24D2369
:103250000D4A0E490E48FEF7F7FC0E48FEF790FEA9
:10326000FEF7BAFD0C48FEF78BFE00BFFDE7029BA0
:10327000984700BF05B05DF804FB00BF00ED00E01B
:10328000540000101D320000285C0000985A000015
:10329000E4590000F45600000C57000000B583B05C
:1032A00001900091019B012B07D1009B4FF6FF720B
:1032B000934202D10348FFF7DBFB00BF03B05DF888
:1032C00004FB00BF3805001008B54FF6FF71012060
:1032D000FFF7E4FF08BDFFFF88B001908DED000A05
:1032E000019B00221A60019B00225A60019B01226F
:1032F0009A6000238DF81F3000230693069B0E2B47
:1033000052DC9DF81F30002B4ED1069B01330593F4
:10331000059B0E2B44DC9DF81F30002B40D1069BF3
:1033200007EE903AF8EEE77ACDED047A059B07EECA
:10333000903AF8EEE77ACDED037ADDED046A9DED83
:10334000037AC6EE877AB7EE007A77EE877ACDED0C
:10335000027ADDED027A9FED167A77EE877A9DED9F
:10336000007AB4EEE77AF1EE10FA15D8DDED027AC4
:103370009FED0F7A77EEC77A9DED007AB4EEE77A8B
:10338000F1EE10FA08DB069A019B5A60059A019B40
:103390009A6001238DF81F30059B01330593B7E731
:1033A000069B01330693A9E700BF019808B0704758
:1033B000CDCC4C3D82B08DED010ACDED000ADDEDA6
:1033C000017AB3EE007A27EE877ADDED007A67EEB8
:1033D000277A9FED057AC7EE276AF0EE667AB0EE9F
:1033E000670A02B0704700BF001B374C82B08DEDFA
:1033F000010ACDED000ADDED017AB3EE007A27EE89
:10340000877ADDED007A67EE277A9FED057AC7EEC1
:10341000276AF0EE667AB0EE670A02B0704700BF26
:10342000001B374C00B587B08DED010A00238DF8E5
:1034300017309DED010A01F0BFF98DED040A9DEDF5
:10344000017ADDED047A77EE677ACDED037ADDED72
:10345000037A9FED0C7AF4EEC77AF1EE10FA0BDBEB
:10346000DDED037A9FED087AF4EEC77AF1EE10FAFB
:1034700002D801238DF817309DF81730184607B091
:103480005DF804FBCDCC4CBDCDCC4C3D10B58CB023
:1034900005908DED040A00230B93059B00221A6012
:1034A000059B00225A60059B01229A604FF00003A1
:1034B0000A934FF07F5309934FF07E5308934FF0D8
:1034C000804307930B9B042B00F0BD800B9B042BC8
:1034D00000F2B78001A252F823F000BFF1340000DF
:1034E00049350000A53500001536000043360000C0
:1034F000F7EE000A9DED040AFFF75CFF8DED0A0A66
:10350000DDED0A7AB7EE007AF4EEC77AF1EE10FA42
:1035100005D5059B00221A6004230B9392E09DEDD4
:103520000A0AFFF77FFF0346002B0AD0DDED0A7A77
:10353000FCEEE77A17EE902A059B1A6004230B93A2
:1035400080E001230B937DE0DDED090A9DED040A87
:10355000FFF730FFF0EE407AB0EE670A01F02CF989
:103560008DED0A0ADDED0A0A9DED040AFFF73EFF24
:103570008DED090ADDED097A9FED357AF4EEC77A13
:10358000F1EE10FA0BDBDDED097A9FED327AF4EE05
:10359000C77AF1EE10FA02D803230B9352E002230C
:1035A0000B934FE0DDED077AB7EE007A77EE877A7E
:1035B000CDED077ADDED087AB2EE0E7AF4EEC77A39
:1035C000F1EE10FA02DD04230B933BE0DDED077A08
:1035D000B2EE0E7AF4EEC77AF1EE10FA0FDDDDED01
:1035E000087AB7EE007A77EE877ACDED087ADDEDCE
:1035F000087AB7EE007A77EE877ACDED077ADDEDBF
:10360000086A9DED077AC6EE877ACDED097A012327
:103610000B9317E0059C6B469DED090A1846FFF7D2
:103620005BFE6B4693E8070084E80700DDED0A7A4D
:10363000FCEEE77A17EE902A059B1A6004230B93A1
:1036400000E000BF3EE700BF05980CB010BD00BF12
:10365000CDCC8C3F3333F33F00B589B00190019B53
:1036600007EE903AF8EE677ACDED077A02AB9DED62
:10367000070A1846FFF70AFF384B1B68D3F8C42027
:10368000364B1B6842F08072C3F8C42003238DF8C8
:103690001B3002238DF81A3080238DF81930304BFF
:1036A0001A682F4B1B681B6804331B6802211046E5
:1036B00098472C4B1A682B4B1B681B6804331B68FC
:1036C000022110469847264B1A68254B1B681B6839
:1036D0001B68022110469847224B1A68214B1B6831
:1036E0001B681B68022110469847029B1B0A8DF835
:1036F0001830029B8DF81730049BDBB21B01DAB245
:10370000039BDBB203F00F03DBB213438DF81630DB
:10371000154B1B6880221A73134B1B689DF81820E9
:103720001A71114B1B689DF817201A700E4B1B68FD
:103730009DF8162083F828200B4B1B6803221A7370
:10374000094B1B681B7ADAB2074B1B6842F0010277
:10375000D2B21A7200BF09B05DF804FB5401001028
:103760004C010010400100105001001082B00346CF
:103770008DF807300B4B1B689DF807201A70094B1A
:103780001B681B7DDBB203F04003002B0CBF012341
:103790000023DBB2002B01D000BFF0E70123184665
:1037A00002B070475001001000B585B001900023B1
:1037B0000393019A039B13441B78002B0AD0019AB0
:1037C000039B13441B781846FFF7D0FF039B01337C
:1037D0000393EEE700BF05B05DF804FB00B583B0CE
:1037E0000190019B1A1D019B5B681B68002110461C
:1037F0009847019B1B7A1A460B4B53F822301A68E4
:10380000019B5B7A194601238B40DB431946019BE0
:103810001B7A1846044B53F820300A401A6000BF48
:1038200003B05DF804FB00BF0000001000B583B0DA
:103830000190019B1A1D019B5B681B6800211046CB
:103840009847019B1B7A1A460A4B53F822301A6894
:10385000019B5B7A194601238B401946019B1B7A19
:103860001846044B53F820300A431A6000BF03B0D7
:103870005DF804FB0000001000B583B001900B461A
:103880008DF803309DF80330002B06D0019B1B6898
:1038900004331B680198984704E0019B1B681B6870
:1038A0000198984700BF03B05DF804FB82B0019017
:1038B000019B5B7A1A46012303FA02F2019B1B7AF1
:1038C0001946034B53F821309A6100BF02B070478C
:1038D0000000001082B00190019B5B7A1A46012320
:1038E00003FA02F2019B1B7A1946034B53F821306D
:1038F000DA6100BF02B070470000001000B583B06D
:1039000001900B468DF803309DF80330002B06D054
:10391000019B1B680C331B680198984705E0019BCD
:103920001B6810331B680198984700BF03B05DF80F
:1039300004FBFFFF82B00190019B1B7A1A460A4BE1
:1039400053F822305A69019B5B7A194601238B4058
:103950001946019B1B7A1846034B53F820304A4006
:103960005A6100BF02B070470000001082B00190A1
:10397000019B1B7A1A46074B53F822305B69019A68
:10398000527AD340DBB203F00103DBB2184602B037
:10399000704700BF0000001082B00190019B1B7AAD
:1039A0001A46084B53F822305B69019A527AD34089
:1039B00003F00103002B14BF01230023DBB21846E0
:1039C00002B070470000001000B585B001900023E0
:1039D0008DF80F309DF80F30032B3DD89DF80F2048
:1039E00013465B0013449B00019A1344181D9DF875
:1039F0000F2013465B0013449B009DF80F20019994
:103A000013465B0013449B000B4404331B680433D0
:103A10001B6898479DF80F2013465B0013449B00DA
:103A2000019A1344181D9DF80F2013465B001344A0
:103A30009B009DF80F20019913465B0013449B00E7
:103A40000B4404331B680C331B6898479DF80F30F8
:103A500001338DF80F30BDE700BF05B05DF804FB02
:103A600000B585B003900B468DF80B309DF80B30F8
:103A7000032B12D99DF80B3000933023174A1849B5
:103A80001848FEF7E1F81848FEF77AFAFEF7A4F9AD
:103A90001648FEF775FA00BFFDE79DF80B201346A8
:103AA0005B0013449B00039A1344181D9DF80B20E0
:103AB00013465B0013449B009DF80B2003991346AB
:103AC0005B0013449B000B4404331B6810331B68DA
:103AD000984700BF05B05DF804FB00BF48620000D6
:103AE000445C0000545C0000A05C0000B85C000076
:103AF00000B585B003900B468DF80B309DF80B3068
:103B0000032B12D99DF80B3000933823174A18491C
:103B10001848FEF799F81848FEF732FAFEF75CF9F4
:103B20001648FEF72DFA00BFFDE79DF80B2013465F
:103B30005B0013449B00039A1344181D9DF80B204F
:103B400013465B0013449B009DF80B20039913461A
:103B50005B0013449B000B4404331B680C331B684D
:103B6000984700BF05B05DF804FB00BF206200006D
:103B70008C600000545C0000A05C0000B85C000099
:103B800000B585B003900B468DF80B3013468DF8C9
:103B90000A309DF80B30032B12D99DF80B3000939F
:103BA0004123154A15491648FEF74EF81548FEF709
:103BB000E7F9FEF711F91448FEF7E2F900BFFDE757
:103BC0009DF80A30012B09D1039B1B6804331B6845
:103BD0009DF80B2011460398984708E0039B1B684B
:103BE00008331B689DF80B2011460398984700BFC7
:103BF00005B05DF804FB00BFD86100009C600000C8
:103C0000545C0000A05C0000B85C000000B585B00A
:103C100003900B468DF80B309DF80B30032B12D917
:103C20009DF80B3000935023174A18491848FEF7A7
:103C30000BF81848FEF7A4F9FEF7CEF81648FEF781
:103C40009FF900BFFDE79DF80B2013465B0013446E
:103C50009B00039A1344181D9DF80B2013465B002C
:103C600013449B009DF80B20039913465B001344FB
:103C70009B000B4404331B6818331B68984700BF34
:103C800005B05DF804FB00BFAC610000AC60000053
:103C9000545C0000A05C0000B85C000000B585B07A
:103CA00001900B468DF8033000238DF80F309DF8FE
:103CB0000F30032B22D89DF803209DF80F3042FAD5
:103CC00003F303F00103002B09D0019B1B680C33A5
:103CD0001B689DF80F1001220198984708E0019B8E
:103CE0001B680C331B689DF80F1000220198984741
:103CF0009DF80F3001338DF80F30D8E700BF05B0C5
:103D00005DF804FB00B585B0019000230393002308
:103D10008DF80B309DF80B30032B2BD89DF80B2022
:103D200013465B0013449B00019A1344181D9DF831
:103D30000B2013465B0013449B009DF80B20019958
:103D400013465B0013449B000B4404331B68203371
:103D50001B68984703461A469DF80B3002FA03F396
:103D60001A46039B134303939DF80B3001338DF8E0
:103D70000B30CFE7039BDBB2184605B05DF804FBC0
:103D80000FB400B5C5B04FF48073439347AA01AB9D
:103D90001A6001AB02A81B68469A4FF48071FDF7C8
:103DA0006BFF429002AB1846FFF7FEFC429B1846A1
:103DB00045B05DF804EB04B07047FFFF84B08DEDB3
:103DC000010A1D4B039300230293029B0E2B2CD858
:103DD0001A4A029B9B001344D3ED007A9FED187A98
:103DE00067EE877A9DED017AB4EEE77AF1EE10FA8C
:103DF00017DB124A029B9B001344D3ED007A9FED20
:103E0000117A67EE877A9DED017AB4EEE77AF1EEEA
:103E100010FA06D8094A029B9B0013441B680393BF
:103E200003E0029B01330293CFE7039B07EE903A36
:103E3000B0EE670A04B0704700001647EC6000005F
:103E40006666663FCDCC8C3F82B00190019B062B0D
:103E500002DD0623019304E0019B002B01DC01231A
:103E60000193019B013B0193064B1B6823F47043B4
:103E7000019A12031146034A0B43136000BF02B0BC
:103E8000704700BF00C00F4000B5ADF5004D9DB0BC
:103E9000D14B0DF5004202F138021360CF4B0DF506
:103EA000004202F13C02136001230DF5004202F1D1
:103EB0004002137000230DF5004202F1410213701D
:103EC0000DF5004303F13803043301211846FEF7D2
:103ED00093F80DF5004303F138031846FFF77EFC15
:103EE000BF4B0DF5004202F104021360BA4B0DF511
:103EF000004202F108021360B84B0DF5004202F1D6
:103F00000C02136001230DF5004202F11002137040
:103F100001230DF5004202F111021370AE4B0DF5B5
:103F2000004202F114021360AC4B0DF5004202F1A5
:103F30001802136001230DF5004202F11C021370F8
:103F400008230DF5004202F11D021370A24B0DF57E
:103F5000004202F120021360A04B0DF5004202F175
:103F60002402136001230DF5004202F128021370B0
:103F70000A230DF5004202F129021370964B0DF54C
:103F8000004202F12C021360944B0DF5004202F145
:103F90003002136001230DF5004202F13402137068
:103FA0000F230DF5004202F1350213700DF50043A9
:103FB00003F104031846FFF707FD0DF5004303F175
:103FC000040300211846FFF769FE4FF4E130FFF7C4
:103FD00043FB8448FFF7D4FE4FF4FA70FEF75EFC13
:103FE000FF20FEF7B1FC4FF4FA70FEF757FC0346D2
:103FF000552B0CBF01230023DBB2002B00F00B81FB
:104000000620FFF721FFAA20FEF79EFC4FF4FA706E
:10401000FEF744FC03460DF5004213704FF4FA70AE
:10402000FEF73CFC03460DF5004202F1010213705D
:104030004FF4FA70FEF732FC03460DF5004202F130
:10404000020213704FF4FA70FEF728FC03460DF5D8
:10405000004202F1030213700DF500431B7818466D
:10406000FEF772FC0DF500431B6807EE903AF8EE80
:10407000677A0DF5004303F16403C3ED007A0DF593
:10408000004303F16403D3ED007AB7EE007A77EED4
:10409000877ADFED556A86EEA77AF3EE006AC7EEFF
:1040A000267A0DF5004303F16003C3ED007A0DF5A8
:1040B000004303F1600393ED000AFFF77FFEF0EE8B
:1040C000407AFCEEE77A17EE903A0DF5004202F1E5
:1040D0005C0213600DF5004303F15C031868FEF702
:1040E0004BFB4FF4FA70FEF781FC4048FEF758FC9A
:1040F00000230DF5004202F16F02137010230DF53D
:10410000004202F1680213600DF5004303F16F03F2
:104110001B78002B72D11CAB703B184600F046F99F
:1041200003460DF5004202F16F0213701CAB703BA9
:1041300008220DF5004101F168010968184600F0F8
:10414000D7FA0DF5004303F1580318600DF500434D
:1041500003F158031B68002B0BD10DF5004303F14D
:10416000040300211846FFF799FD2148FFF71CFBC7
:1041700025E00DF5004303F158031B680DF50042DF
:1041800002F1570213700DF5004303F157031A783B
:104190000DF5004303F1040311461846FFF77EFDB9
:1041A000144A0DF5004303F158031B6852F82330FD
:1041B00019461148FFF7E4FD5E20FEF7D3FB0DF52D
:1041C000004303F168031B6801330DF5004202F15F
:1041D0006802136098E700BF54610000806100002E
:1041E000306100006C5E0000001B374C905E0000E8
:1041F000AC5E0000BC600000C85E00004E48FFF7E7
:10420000D3FA4E48FFF7D0FA4FF4FA70FEF7EEFB00
:104210002A20FEF7A7FB4FF41640FEF7ADFA484BF5
:104220001B6803F580330DF5004202F15002136064
:104230000DF5004303F150031B685B680DF5004268
:1042400002F14C0213600123194601231A463D482E
:10425000FDF7FAFC0DF5004303F138031846FFF7AC
:104260009BFB0346002B23D04FF400530DF5004277
:1042700002F1480213600DF5004303F150031B687F
:104280000DF5004202F1440213600DF5004303F105
:10429000440319682C48FDF7D7FC4FF400510DF585
:1042A000004303F144031868FDF75AFD00BFFDE722
:1042B0000DF5004303F14C031B68B3F1FF3F04D13C
:1042C0002248FEF76DFB00BFFDE70DF5004303F14B
:1042D0004C0319681E48FDF7B7FC4FF4FA70FEF75F
:1042E00085FB0DF5004303F1380304330221184622
:1042F000FDF782FE0DF5004303F10403002118468B
:10430000FFF7CCFC1348FEF763FE134A0DF500439C
:1043100003F150031B6893601048FEF741FB0DF555
:10432000004303F14C031B689847002318460DF522
:10433000004D1DB05DF804FBDC5E0000F45E000083
:1043400040050010105F00002C5F00003C5F000083
:10435000685F00003401001000ED00E08C5F000099
:1043600000B587B001900023059300230493049BBC
:10437000B3F5805F14D26420FEF790FA03468DF8FF
:104380000F30019A049B13449DF80F201A709DF87A
:104390000F30059A13440593049B01330493E6E719
:1043A000059BDBB2184607B05DF804FB00B589B089
:1043B000019000238DF81F30002306934FF4004234
:1043C000FF21019800F059FC2B48FFF7D9FC212070
:1043D000FEF7C8FA069B072B48D84FF47A70FEF711
:1043E0005DFA03468DF817306420FEF757FA03464E
:1043F0008DF816309DF817301A029DF816301343C9
:104400000493049B4FF6FF72934206D11B48FFF7BB
:10441000CBF901238DF81F3028E0049B03F007033C
:104420000393039B1B03019A13441846FFF798FF5D
:1044300003468DF80B304FF47A70FEF72FFA0346DF
:104440008DF80A309DF80B209DF80A309A4203D06F
:104450004020FEF787FABDE7069B01330693069BD3
:10446000072BB7D82120FEF77DFAB3E79DF81F3060
:10447000184609B05DF804FBA45F0000C05F0000AF
:1044800000B58DB00190009107AB00221A605A6010
:104490009A60DA601A6102AB00221A605A609A6070
:1044A000DA601A6132230793019B0893009B0993FA
:1044B000054B1B6802A907AA10469847029B18469D
:1044C0000DB05DF804FB00BF5801001000B58FB0BF
:1044D0000190009108AB00221A605A609A60DA607D
:1044E0001A6103AB00221A605A609A60DA601A619E
:1044F00000990198FFF7C4FF0D900D9B002B0FD181
:1045000034230893019B0993009B0A934BF6803355
:104510000B93074B1B6803A908AA1046984701E0B4
:104520000D9B0393039B18460FB05DF804FB00BF7F
:104530005801001000B593B00390029101920AABAC
:1045400000221A605A609A60DA601A6105AB002294
:104550001A605A609A60DA601A6102990298FFF74D
:104560008FFF1190029B103B10931C4B1A68109BFD
:10457000D900019B0B4410331B0313440F93119B71
:10458000002B1BD133230A930F9B0B93039B0C939C
:104590004FF480530D934BF680330E93104B1B68F2
:1045A00005A90AAA10469847059B0E4A52F82330DF
:1045B0001A460F990C48FFF7E3FB09E0094A119BE3
:1045C00052F8233019460948FFF7DAFB119B05938F
:1045D000059B184613B05DF804FB00BF40050010B2
:1045E00058010010BC600000D05F0000E85F0000D0
:1045F00000B58FB00190009107AB00221A605A609D
:104600009A60DA601A6102AB00221A605A609A60FE
:10461000DA601A6138230793009B103B0D930C4B13
:104620001A680D9B0233DB0313440C93019B089320
:104630000C9B09934FF400430A93064B1B6802A995
:1046400007AA10469847029B18460FB05DF804FB76
:10465000400500105801001000B58DB00190009188
:1046600007AB00221A605A609A60DA601A6102ABE6
:1046700000221A605A609A60DA601A613523079343
:10468000019B0893009B0993054B1B6802A907AA8D
:1046900010469847029B18460DB05DF804FB00BF1A
:1046A0005801001000B585B001900F48FFF768FB76
:1046B0000A20FEF79BF901990198FFF707FF039085
:1046C00001990198FFF7C8FF0290039B002BF2D1DC
:1046D000029B002B00D0EEE70448FFF751FB00BF20
:1046E00005B05DF804FB00BF0C6000002060000016
:1046F00000B589B003900291019202992048FFF71A
:104700003FFB0298FFF7CEFF0B230793079B002B7D
:104710002DD000230693069A019B9A4221D2069B34
:104720001B03039A1344069A02991846FFF702FFE7
:104730000590059B002B0DD0059B8DF813309DF83F
:10474000133019460F48FFF71BFB0298FFF7AAFF2B
:10475000002306930A20FEF749F9069B01330693CE
:10476000D9E702990398FFF743FF0790CEE7064881
:10477000FFF706FB0023184609B05DF804FB00BFF5
:104780003C600000506000007060000008B500F060
:104790000DF808B5804700F00FFAFFFF024B1868CC
:1047A000BFF35B8F704700BF5C01001008B5FFF7D7
:1047B000F5FFFFF7EEFFFFFF82B08DED010A0199D3
:1047C000C1F3C753A3F17F02162A0CDC002A10DBC9
:1047D00010481041014208D04FF4800313410B44AC
:1047E00023EA00030BE0802A0DD09DED010A02B000
:1047F0007047013201F0004301D143F07E5300EED7
:10480000103A02B07047DDED017A37EEA70A02B028
:10481000704700BFFFFF7F004FEA4102B2F1E04363
:1048200024BFB3F5001CDCF1FE5C0DD901F0004C97
:104830004FEAC0024CEA5070B2F1004F40EB8300E7
:1048400008BF20F00100704711F0804F21D113F113
:104850003872BCBF01F00040704741F480114FEA4C
:104860005252C2F11802C2F1200C10FA0CF320FAD5
:1048700002F018BF40F001004FEAC1234FEAD323F2
:1048800003FA0CFC40EA0C0023FA02F34FEA43035C
:10489000CCE77FEA625307D150EA01331EBF4FF0E5
:1048A000FE4040F44000704701F0004040F0FE4000
:1048B00040F40000704700BF53B94AB9002908BF4F
:1048C00000281CBF4FF0FF314FF0FF3000F072B9ED
:1048D000ADF1080C6DE904CE00F006F8DDF804E057
:1048E000DDE9022304B070472DE9F047089E044635
:1048F0008846002B4BD18A42154667D9B2FA82F21C
:104900004AB1C2F1200701FA02F320FA07F79540F5
:1049100047EA030894404FEA154E230CB8FBFEF714
:104920001FFA85FC0EFB178843EA084307FB0CF1CE
:10493000994209D9EB1807F1FF3080F01B819942A9
:1049400040F21881023F2B445B1AA4B2B3FBFEF085
:104950000EFB103344EA034400FB0CFCA44509D9C8
:104960002C1900F1FF3380F00781A44540F2048147
:1049700002382C4440EA0740A4EB0C0400271EB187
:10498000D4400023C6E900433946BDE8F0878B4296
:1049900009D9002E00F0EB800027C6E90001384657
:1049A0003946BDE8F087B3FA83F7002F47D18B4231
:1049B00002D3824200F2FA80841A61EB03030120E1
:1049C0009846002EE0D0C6E90048DDE702B9FFDED8
:1049D000B2FA82F2002A40F08F80491B4FEA154E4E
:1049E0001FFA85F80127B1FBFEFC230C0EFB1C11FE
:1049F00043EA014308FB0CF1994207D9EB180CF18B
:104A0000FF3002D2994200F2CD808446591AA3B2F7
:104A1000B1FBFEF00EFB101443EA044408FB00F85F
:104A2000A04507D92C1900F1FF3302D2A04500F2AE
:104A3000B6801846A4EB080440EA0C409FE7C7F193
:104A4000200CBB4022FA0CFE4EEA030E01FA07F4DA
:104A500020FA0CF521FA0CF34FEA1E482543B3FB6C
:104A6000F8F92C0C08FB19331FFA8EFA44EA0343B9
:104A700009FB0AF49C4202FA07F200FA07F10BD98B
:104A80001EEB030309F1FF3080F087809C4240F267
:104A90008480A9F1020973441B1BADB2B3FBF8F08B
:104AA00008FB103345EA034400FB0AFAA24508D983
:104AB0001EEB040400F1FF336BD2A24569D9023822
:104AC000744440EA0940A0FB0289A4EB0A044C4567
:104AD000C2464B4654D351D0002E69D0B1EB0A05E3
:104AE00064EB030404FA0CFCFD40FC404CEA0505B1
:104AF000C6E90054002747E7C2F1200320FA03F774
:104B0000954001FA02F021FA03F34FEA154E3843BB
:104B1000010CB3FBFEF71FFA85F80EFB173341EAD1
:104B2000034107FB08F38B4204FA02F407D9691822
:104B300007F1FF3C2FD28B422DD9023F2944CB1ADB
:104B400081B2B3FBFEF00EFB103341EA034100FBE0
:104B500008F38B4207D9691800F1FF3C17D28B424A
:104B600015D902382944C91A40EA07473BE73746B6
:104B7000304609E70746E7E61846FBE64145ABD273
:104B8000B8EB020A69EB0E0201381346A4E760464F
:104B9000E9E7184695E76746D1E781467CE70238A2
:104BA0002C4447E7ACF1020C2B442FE7384608E7CA
:104BB0003746E9E6704700BF08B5062000F05AF90D
:104BC0000120FDF737F9FFFF70B50D4E0D4CA41B0A
:104BD000A4100025A54209D10B4E0C4CFBF790FB0D
:104BE000A41BA4100025A54205D170BD56F82530A0
:104BF00098470135EEE756F8253098470135F2E73A
:104C00000C0300000C0300000C030000180300005C
:104C100010B5044600F006F82044407800F09700F4
:104C200010BDFFFF044B054A1B681B6A002B08BF21
:104C30001346D3F8EC00704760010010C401001067
:104C400082B001B901A942B14BB113780B6012785F
:104C5000101C18BF012002B070471046FBE76FF030
:104C60000100F8E710B5431E0A44914200D110BD7F
:104C700011F8014B03F8014FF7E702440346934252
:104C800000D1704703F8011BF9E7FFFF38B505466F
:104C9000002945D051F8043C0C1F002BB8BFE41884
:104CA00000F0F0FA1F4A1368104633B963601460CD
:104CB0002846BDE8384000F0E6BAA3420CD9216886
:104CC0006218934204BF1A685B68636004BF52189D
:104CD00022600460ECE713465A680AB1A242FAD98E
:104CE00019685818A0420BD1206801445818824214
:104CF0001960DDD1106852685A6001441960D7E725
:104D000002D90C232B60D3E7206821188A4204BF04
:104D100011685268626004BF091821605C60C7E7CF
:104D200038BD00BF4405001070B5CD1C25F003054B
:104D300008350C2D38BF0C25002D064601DBA94295
:104D400003D90C233360002070BD00F09BFA214A88
:104D50001468214691B9204C23681BB9304600F0F5
:104D600051F820602946304600F04CF8431C24D10D
:104D70000C233360304600F086FAE4E70B685B1BD7
:104D800018D40B2B0FD90B60CD50CC18304600F047
:104D90007AFA04F10B00231D20F00700C31AD3D0C8
:104DA0005A42E250D0E78C424B6816BF63601360F2
:104DB0000C46EBE70C464968CCE7C41C24F003041E
:104DC000A04205D0211A304600F01CF80130CFD0A7
:104DD0002560DBE7440500104805001038B5084B96
:104DE0001C68054624B1A36913B9204600F05CF99C
:104DF000A26829462046BDE8384000F045BA00BF09
:104E00006001001038B5064C0023054608462360B3
:104E1000FDF72AF8431C02D1236803B12B6038BD8B
:104E20004C0500101F2938B504460D4604D9162339
:104E300003604FF0FF3038BD426C12B152F82130A0
:104E40004BB9204600F030F82A4601462046BDE81E
:104E5000384000F017B8012B0AD0591C03D1162393
:104E600003600120E7E7002442F8254028469847E0
:104E70000020E0E7024B01461868FFF7D3BF00BFF0
:104E80006001001038B5074C00230546084611465E
:104E90002360FCF7D6FF431C02D1236803B12B60CB
:104EA00038BD00BF4C050010FCF7C8BF49B1FF2A50
:104EB00085BF8A2303600A704FF0FF3098BF01203E
:104EC000704708467047FFFF8A892DE9F041054683
:104ED00010070C4658D44B68002B05DC0B6C002BDC
:104EE00002DC0020BDE8F081E66A002EF9D0002344
:104EF00012F480522F68216A2B6032D0606DA38932
:104F00005A0705D56368C01A636B0BB1236CC01ACE
:104F100000230246E66A216A2846B047431CA3895B
:104F200006D129681D2948D8294ACA40D60744D540
:104F300000226260D9042269226004D5421C01D19A
:104F40002B6803B96065616B2F600029C9D004F13B
:104F50004403994202D02846FFF798FE0020606380
:104F6000C0E701232846B047411CC8D12B68002B5D
:104F7000C5D01D2B01D0162B01D12F60B1E7A3891D
:104F800043F04003A381ADE70F69002FA9D0930739
:104F90000E6808BF4B690F6018BF0023A6EB070817
:104FA0008B60B8F1000F9CDD43463A46216AA66A41
:104FB0002846B047002806DCA38943F04003A381BC
:104FC0004FF0FF308EE70744A8EB0008E9E700BF89
:104FD0000100402038B50B6905460C46DBB118B11D
:104FE00083690BB900F060F80C4B9C4209D16C68E6
:104FF000B4F90C307BB121462846BDE83840FFF7B4
:1050000063BF074B9C4201D1AC68F1E7054B9C4262
:1050100008BFEC68ECE7002038BD00BFA0630000CB
:10502000C063000080630000002310B50446C0E99F
:105030000033836081814366C281C0E904338361A8
:10504000194608225C30FFF718FE054B6362054BDA
:10505000A362054BE362054B2462236310BD00BFCE
:10506000F5520000175300004F5300007353000027
:10507000014900F085B800BFD54F000070B54A1E49
:10508000682555430E4605F17401FFF74DFE0446B1
:1050900040B10021C0E900160C30A06005F16802A3
:1050A000FFF7EBFD204670BD836910B5044633BBA6
:1050B000C0E912330365124B124A1B6882629842A0
:1050C00004BF0123836100F01FF86060204600F0F8
:1050D0001BF8A060204600F017F80022E0600421D1
:1050E0006068FFF7A1FF01220921A068FFF79CFF7C
:1050F00002221221E068FFF797FF0123A36110BD90
:105100007062000071500000F8B51B4B1E68B36957
:10511000074613B93046FFF7C7FF4836D6E90134D2
:10512000013B03D5336833B13668F7E7B4F90C5067
:105130006DB16834F4E704213846FFF79FFF306013
:105140000028F1D10C233B6004462046F8BD0B4BF0
:105150006566C4E90055A560C4E90335C4E9055591
:105160000822294604F15C00FFF787FDC4E90D55CC
:10517000C4E91255E9E700BF706200000100FFFFBB
:105180002DE9F8438046894600F14804002614B909
:105190003046BDE8F883D4E90175013F01D52468A4
:1051A000F5E7AB89012B07D9B5F90E30013303D0F0
:1051B00029464046C84706436835EEE770B50E46B7
:1051C000B1F90E10002996B014461D4607DA0023E7
:1051D0002B60B3891A0610D44FF480630EE06A4640
:1051E00000F0AEF90028F2DB019A02F47042A2F559
:1051F00000535A425A412A60EEE7402300202360C0
:1052000016B070BD8B8973B59D0706460C4607D551
:1052100004F14703236023610123636102B070BD81
:1052200001AB6A46FFF7CAFF009905463046FFF713
:105230007BFD48B9B4F90C309A05EFD423F0030391
:1052400043F00203A381E3E70D4BB362A38920601F
:1052500043F08003A381009B6361019B20615BB1EC
:10526000B4F90E10304600F07DF928B1A38923F07F
:10527000030343F00103A381A3891D43A581CDE767
:10528000715000007047704770B50D4614460646D1
:1052900018B183690BB9FFF707FF134B9C4212D17A
:1052A0007468A368013B002BA36016DAA2699342DD
:1052B00002DBEBB20A2B10D1224629463046BDE86C
:1052C000704000F05BB8094B9C4201D1B468E8E73C
:1052D000074B9C4208BFF468E3E723685A1C22602E
:1052E0001D70E8B270BD00BFA0630000C063000085
:1052F0008063000010B50C46B1F90E1000F054F9AF
:105300000028ABBF636DA3891B1823F48053ACBF87
:105310006365A38110BD2DE9F0411F468B89DB0534
:1053200005460C46164605D502230022B1F90E109B
:1053300000F028F9A389B4F90E1023F48053A38157
:1053400032463B462846BDE8F04100F069B810B54A
:105350000C46B1F90E1000F015F9431CA38915BFD6
:10536000606523F4805343F48053A38118BFA38165
:1053700010BDB1F90E1000F0D3B8FFFFF8B50E461E
:105380001446054618B183690BB9FFF78DFE214B12
:105390009C422AD16C68A369A360A3891A072ED501
:1053A000236963B323692068C01A6369F6B2834234
:1053B000374604DC21462846FFF70CFE28BBA368CD
:1053C000013BA36023685A1C22601E706369013090
:1053D000834204D0A389DB0719D50A2E17D12146B1
:1053E0002846FFF7F7FD90B10FE00B4B9C4201D12F
:1053F000AC68D0E7094B9C4208BFEC68CBE721467C
:10540000284600F01FF80028CCD04FF0FF37384670
:10541000F8BD00BFA0630000C0630000806300000F
:1054200038B5074C054608461146002222601A4648
:10543000FCF742FD431C02D1236803B12B6038BD49
:105440004C050010324B70B51D6806460C4625B160
:10545000AB6913B92846FFF727FE2E4B9C420FD1AC
:105460006C68B4F90C309AB215072CD4D00611D45C
:105470000922326043F04003A3814FF0FF303EE049
:10548000254B9C4201D1AC68EBE7244B9C4208BF02
:10549000EC68E6E7510712D5616B41B104F14403B2
:1054A000994202D03046FFF7F1FB00236363A389E2
:1054B00023F02403A3810023636023692360A3896D
:1054C00043F00803A38123694BB9A38903F4207334
:1054D000B3F5007F03D021463046FFF793FEA28943
:1054E00012F001030CD00023A36063695B42A36147
:1054F000236953B9B4F90C3013F08000BAD170BDF0
:10550000920758BF6369A360F2E70020F7E700BF86
:1055100060010010A0630000C06300008063000011
:1055200038B5064C0023054608462360FCF7BCFC52
:10553000431C02D1236803B12B6038BD4C05001019
:1055400038B5074C00230546084611462360FCF792
:1055500080FC431C02D1236803B12B6038BD00BF1F
:105560004C05001038B5064C00230546084623605C
:10557000FCF75AFC431C02D1236803B12B6038BDF1
:105580004C05001038B5074C054608461146002268
:1055900022601A46FCF7AEFC431C02D1236803B11B
:1055A0002B6038BD4C05001038B5074C0546084641
:1055B0001146002222601A46FCF7A4FC431C02D1CB
:1055C000236803B12B6038BD4C0500100000803FFC
:1055D000000020410000C84200007A4400401C4600
:1055E0000050C347002474498096184B20BCBE4C21
:1055F000286B6E4E7C0000002530325820000000E1
:10560000202020002530386C582020002530386CB0
:105610005820200A00000000537461636B20446529
:10562000707468203D20257A640A0000202023251C
:105630007A753A20307825700A00FFFF00000000DC
:1056400000000000991F0000F91F00006120000009
:10565000BD200000192100007D210000E121000093
:105660003D220000A1220000FD220000592300007D
:1056700073797374656D5F636C6F636B2E687070A4
:1056800000FFFFFF73797374656D5F636C6F636B0D
:105690002E68707000FFFFFF435249544943414C4C
:1056A0003A25733A25733A25643E20467265717532
:1056B000656E6379206D757374206265206C6F77F9
:1056C0006572207468616E20333834204D487A61E9
:1056D0006E642067726561746572207468616E2003
:1056E0006F7220657175616C20746F203132204DAE
:1056F000487A0A000A5072696E74696E67205374A2
:1057000061636B2054726163653A0A000A52756ED8
:105710003A2074686520666F6C6C6F77696E6720DD
:10572000636F6D6D616E6420696E20796F75722094
:1057300070726F6A656374206469726563746F72F6
:10574000790A0A2020202061726D2D6E6F6E652D02
:10575000656162692D61646472326C696E65202DC9
:1057600065206275696C642F62696E617269657328
:105770002F6669726D776172652E656C66203C6973
:105780006E736572742070633E0A0A5468697320F0
:1057900077696C6C207265706F7274207468652014
:1057A00066696C6520616E64206C696E65206E753B
:1057B0006D626572206173736F63696174656420E3
:1057C0007769746820746861742070726F677261A1
:1057D0006D20636F756E7465722076616C7565738C
:1057E0002070726F76696465642061626F766520EF
:1057F000696E20746865206261636B7472616365B1
:105800002E0A0000435249544943414C3A25733A09
:1058100025733A25643E20504C4C206469766964B7
:1058200065722076616C75652077656E74206F7582
:1058300074206F6620626F756E64730A000000004A
:10584000435249544943414C3A25733A25733A250A
:10585000643E20504C4C206C6F636B20636F756C02
:1058600064206E6F742062652065737461626C6978
:1058700073686564206265666F72652074696D6522
:105880006F75740A00000000435249544943414C6B
:105890003A25733A25733A25643E20446976696453
:1058A0006572206D7573746E277420657863656505
:1058B000642033320A000000205741524E494E47BF
:1058C0003A25733A25733A25643E205379737465FB
:1058D0006D2054696D657220686173204641494CA2
:1058E000454420746F207374617274210A000000B3
:1058F00025733A25733A25643E2072303A20307879
:105900002530386C582C2072313A203078253038C8
:105910006C582C2072323A2030782530386C582C54
:105920002072333A2030782530386C58200A000035
:1059300025733A25733A25643E207231323A20307D
:10594000782530386C582C206C723A20307825300D
:10595000386C582C2070633A2030782530386C58D9
:105960002C207073723A2030782530386C580A0039
:10597000435249544943414C3A25733A25733A25D9
:10598000643E2048617264204661756C74204578DD
:1059900063657074696F6E204F636375726564210F
:1059A0000A00000025733A25733A25643E20537996
:1059B0007374656D2054696D657220495352206E71
:1059C0006F7420646566696E65642C206469736118
:1059D000626C696E672053797374656D2054696DCC
:1059E00065720A00435249544943414C3A25733A7F
:1059F00025733A25643E204E6F2049535220666F2E
:105A0000756E6420666F72207468652076656374B5
:105A10006F72202575205B256C645D0A00FFFFFF17
:105A200073797374656D5F636C6F636B2E687070F0
:105A300000FFFFFF73797374656D5F636C6F636B59
:105A40002E68707000FFFFFF73797374656D5F637C
:105A50006C6F636B2E68707000FFFFFF7374617270
:105A60007475702E63707000737461727475702E2B
:105A700063707000737461727475702E637070005F
:105A8000737461727475702E6370700073746172D8
:105A90007475702E63707000737461727475702EFB
:105AA0006370700000000000000000004D2F000037
:105AB000652F0000D12F0000F92F0000000000002A
:105AC00000000000D12E00003D2F0000000000006B
:105AD000000000008D4700008D470000766F69646C
