:1000000000000110D93A00000D0100000F010000AE
:100010002D0100002F010000310100007EBFFEEF26
:1000200000000000000000000000000001040000CB
:10003000350100000000000031040000390100001B
:100040004D3800004D3800004D3800004D3800009C
:100050004D3800004D3800004D3800004D3800008C
:100060004D3800004D3800004D3800004D3800007C
:100070004D3800004D3800004D3800004D3800006C
:100080004D3800004D3800004D3800004D3800005C
:100090004D3800004D3800004D3800004D3800004C
:1000A0004D3800004D3800004D3800004D3800003C
:1000B0004D3800004D3800004D3800004D3800002C
:1000C0004D3800004D3800004D3800004D3800001C
:1000D0004D3800004D3800004D3800004D3800000C
:1000E0004D38000008910000000000107C03000063
:1000F00008910000000000200000000080030010B4
:10010000380200000000002000000000FEE71EF0A2
:10011000040F0CBFEFF30880EFF309808169DFF86B
:10012000042010472139000000BF7047FEE7FEE7BA
:10013000FEE7FEE7FEE7FEE708B503F0E7FA0A4B45
:100140001B68002B0AD14FF4A373084A08490948D9
:1001500001F082FA084803F02DFB02E0024B1B6815
:10016000984700BF08BD00BFA8050010387B0000FD
:10017000CC7A00004C7A00008800001086B0002382
:100180000593059A13465B0013449B001D4A1344D4
:100190001D4A934233D21B49059A13465B00134410
:1001A0009B000B441B6803931649059A13465B009A
:1001B00013449B000B445B6802931249059A134653
:1001C0005B0013449B000B4408331B68019300231E
:1001D0000493049A019B9A420DD2049B9B00039ABC
:1001E0001A44049B9B0002990B4412681A60049BFA
:1001F00001330493EDE7059B01330593C1E700BF8D
:1002000006B07047E4000000FC00000084B000234A
:100210000393039BDB00134A1344134A93421ED2F9
:10022000104A039B52F8333001930E4A039BDB00C4
:1002300013445B68009300230293029A009B9A4246
:1002400009D2029B9B00019A134400221A60029B70
:1002500001330293F1E7039B01330393D9E700BF16
:1002600004B07047FC0000000C010000DFF814002F
:10027000016841F470010160BFF34F8FBFF36F8FCE
:1002800000BF704788ED00E0FFFFFFFFFFFFFFFFAB
:10029000FFFFFFFFFFFFFFFFFFFFFFFFFFFFFFFF6E
:1002A000FFFFFFFFFFFFFFFFFFFFFFFFFFFFFFFF5E
:1002B000FFFFFFFFFFFFFFFFFFFFFFFFFFFFFFFF4E
:1002C000FFFFFFFFFFFFFFFFFFFFFFFFFFFFFFFF3E
:1002D000FFFFFFFFFFFFFFFFFFFFFFFFFFFFFFFF2E
:1002E000FFFFFFFFFFFFFFFFFFFFFFFFFFFFFFFF1E
:1002F000FFFFFFFFFFFFFFFFFFFFFFFFFFFFFFFF0E
:10030000F8B500BFF8BC08BC9E4670475903000012
:10031000511C0000352800007D360000113A000015
:10032000493B000045610000F8B500BFF8BC08BCBF
:100330009E46704710B5054C237833B9044B13B172
:100340000448AFF300800123237010BD8003001028
:10035000000000000891000008B5034B1BB10349E1
:100360000348AFF3008008BD0000000084030010C4
:100370000891000084B01C4B1B68002B03D01B4B62
:1003800001221A602CE0194B00221A60184B1B68DE
:100390000193019BB3FA83F38DF803309DF803308A
:1003A000C3F11F030393039A13469B0013449B005E
:1003B000104A13440293029B5B685A68029B5A607E
:1003C000029B5A68029B08339A4204D1029B5B68E5
:1003D0005A68029B5A60029B5B68DB68064A13609E
:1003E00000BF04B0704700BF0C04001008040010E8
:1003F00004040010A00300109C030010FFFFFFFF87
:10040000074B19680868B0E8F04F80F30988BFF31C
:100410006F8F4FF0000080F311887047AFF30080BA
:100420009C03001000BF00BFFFFFFFFFFFFFFFFFA7
:10043000EFF30980BFF36F8F154B1A681EF0100F92
:1004400008BF20ED108A20E9F04F10602DE9090067
:100450004FF0280080F31188BFF34F8FBFF36F8FE9
:10046000FFF788FF4FF0000080F3118809BC19687E
:100470000868B0E8F04F1EF0100F08BFB0EC108A0B
:1004800080F30988BFF36F8F704700BFAFF3008020
:100490009C03001000BF00BF84B002910192009342
:1004A00003468DF80F30019A009B9A4205D2029ABA
:1004B000019B13449DF80F201A7000BF04B07047D1
:1004C00084B002910192009303468DF80F3000BF73
:1004D00004B0704700B585B00291019200930346C5
:1004E0008DF80F309DF80F30002B04D09DF80F30A1
:1004F000184602F031F900BF05B05DF804FB84B086
:100500000190019B0393039B1B78002B03D0039B5B
:1005100001330393F7E7039A019BD31A184604B0FB
:10052000704782B003468DF807309DF807302F2BB7
:1005300005D99DF80730392B01D8012300E00023AD
:10054000184602B0704700B585B0019000230393B0
:10055000019B1B681B781846FFF7E3FF0346002B3F
:100560000FD0039A13469B0013445B001846019B6F
:100570001B68591C019A11601B780344303B03939C
:10058000E6E7039B184605B05DF804FB10B588B09C
:100590000390029101920093019B0593109B03F03D
:1005A0000203002B0ED10B9A0E9B9A420AD20B9B90
:1005B0001F2B07D80B9B5A1C0B920A9A134430220C
:1005C0001A70EBE7109B03F00203002B13D1109B72
:1005D00003F00103002B0ED00B9A0F9B9A420AD214
:1005E0000B9B1F2B07D80B9B5A1C0B920A9A134488
:1005F00030221A70E6E7109B03F01003002B58D04E
:10060000109B03F48063002B16D10B9B002B13D09F
:100610000B9A0E9B9A4203D00B9A0F9B9A420BD1D6
:100620000B9B013B0B930B9B002B05D00D9B102BC1
:1006300002D10B9B013B0B930D9B102B0FD1109BF9
:1006400003F02003002B0AD10B9B1F2B07D80B9B19
:100650005A1C0B920A9A134478221A701FE00D9BC1
:10066000102B0FD1109B03F02003002B0AD00B9B03
:100670001F2B07D80B9B5A1C0B920A9A1344582223
:100680001A700CE00D9B022B09D10B9B1F2B06D877
:100690000B9B5A1C0B920A9A134462221A700B9BF2
:1006A0001F2B06D80B9B5A1C0B920A9A134430221C
:1006B0001A700B9B002B14D00B9A0F9B9A4210D1EF
:1006C0009DF83030002B09D1109B03F00403002B60
:1006D00004D1109B03F00803002B02D00B9B013BBD
:1006E0000B930B9B1F2B24D89DF83030002B07D089
:1006F0000B9B5A1C0B920A9A13442D221A7018E075
:10070000109B03F00403002B07D00B9B5A1C0B9289
:100710000A9A13442B221A700BE0109B03F0080373
:10072000002B06D00B9B5A1C0B920A9A13442022D2
:100730001A70109B03F00203002B16D1109B03F0DC
:100740000103002B11D10B9B0793079A0F9B9A4231
:100750000BD2019A531C0193039C009B0299202009
:10076000A047079B01330793EFE700230693069A00
:100770000B9B9A4211D20B9A069BD31A013B0A9A01
:1007800013441878019A531C0193039C009B02990F
:10079000A047069B01330693E9E7109B03F0020391
:1007A000002B0ED0019A059BD31A0F9A9A4208D9B2
:1007B000019A531C0193039C009B02992020A0479F
:1007C000F0E7019B184608B010BD00B597B00B903C
:1007D0000A910992089300231593189B002B03D1CB
:1007E0001D9B23F010031D931D9B03F48063002BBE
:1007F00002D0189B002B33D0189B1A9AB3FBF2F24D
:100800001A9901FB02F29B1A8DF853309DF8533070
:10081000092B04D89DF853303033DAB20DE01D9B1C
:1008200003F02003002B01D0412200E061229DF85B
:1008300053301344DBB20A3BDAB2159B591C1591B5
:1008400016A90B4403F8282C189A1A9BB2FBF3F351
:100850001893189B002B03D0159B1F2B00D8CBE7B8
:100860001D9B06931C9B05931B9B04931A9B039350
:100870009DF864300293159B01930CAB0093089B89
:10088000099A0A990B98FFF781FE0346184617B09C
:100890005DF804FB10B596B00B900A91099208938D
:1008A00000231593DDE91834234303D1209B23F063
:1008B00010032093209B03F48063002B03D0DDE919
:1008C0001834234339D0DDE91801DDE91C2305F094
:1008D000D5FC1C4613468DF853309DF85330092B38
:1008E00004D89DF853303033DAB20DE0209B03F08A
:1008F0002003002B01D0412200E061229DF85330FB
:100900001344DBB20A3BDAB2159B591C159116A9A8
:100910000B4403F8282CDDE91C23DDE9180105F060
:10092000ADFC03460C46CDE91834DDE91834234309
:1009300003D0159B1F2B00D8C5E71C9B209A06925D
:100940001F9A05921E9A049203939DF868300293B1
:10095000159B01930CAB0093089B099A0A990B987D
:10096000FFF714FE0346184616B010BD10B59AB036
:1009700005900491039202938DED000B039B11935C
:10098000DDE9000105F02AFC0346199300231893C2
:100990004FF0000310934FF09E430F9300238DF808
:1009A0005F30DDED197AF5EEC07AF1EE10FA0AD576
:1009B00001238DF85F309FEDA77ADDED197A77EE90
:1009C000677ACDED197A1E9B03F48063002B01D169
:1009D00006231C93189B1F2B0ED81C9B092B0BD98D
:1009E000189B5A1C18921AAA1344302203F8502C50
:1009F0001C9B013B1C93EDE7DDED197AFDEEE77AD8
:100A000017EE903A1693169B07EE903AF8EEE77AB7
:100A10009DED197A37EE677A8F4A1C9B9B00134431
:100A2000D3ED007A67EE277ACDED0E7ADDED0E7A02
:100A3000FCEEE77A17EE903A1593159B07EE903A85
:100A4000F8EE677A9DED0E7A77EE677ACDED107A43
:100A5000DDED107AB6EE007AF4EEC77AF1EE10FA18
:100A600018DD159B01331593159B07EE903AB8EEF0
:100A7000677A794A1C9B9B001344D3ED007AB4EE4D
:100A8000E77AF1EE10FA19DB00231593169B013378
:100A9000169313E0DDED107AB6EE007AF4EE477AA5
:100AA000F1EE10FA0AD1159B002B04D0159B03F030
:100AB0000103002B02D0159B01331593DDED197A4C
:100AC0009FED667AF4EEC77AF1EE10FA01DD0023AD
:100AD00054E11C9B002B29D1169B07EE903AF8EEAF
:100AE000E77A9DED197A77EE677ACDED107ADDED34
:100AF000107AB6EE007AF4EEC77AF1EE10FA03DD62
:100B0000169B013316935FE0DDED107AB6EE007AA6
:100B1000F4EE477AF1EE10FA56D1169B03F001037A
:100B2000002B51D0169B013316934DE01C9B149360
:100B3000189B1F2B27D8149B013B14931599484BE6
:100B4000A3FB0123DA0813469B0013445B00CA1A77
:100B5000D3B23033D9B2189B5A1C18921AAA134434
:100B60000A4603F8502C159B3D4AA2FB0323DB08E1
:100B70001593159B002B0CBF01230023DBB2002B28
:100B800000D1D5E700BF189B1F2B06D8149B5A1E17
:100B90001492002B01D0012300E00023002B08D089
:100BA000189B5A1C18921AAA1344302203F8502C8E
:100BB000E9E7189B1F2B07D8189B5A1C18921AAAF2
:100BC00013442E2203F8502C189B1F2B28D8169A5A
:100BD000244B83FB02139910D317C91A0B469B00B1
:100BE0000B445B00D11ACBB23033D9B2189B5A1CDC
:100BF00018921AAA13440A4603F8502C169B194A55
:100C000082FB03129210DB17D31A1693169B002B4C
:100C10000CBF01230023DBB2002B00D1D4E700BFBF
:100C20001E9B03F00203002B1ED11E9B03F0010349
:100C3000002B19D0189A1D9B9A4215D2189B1F2B76
:100C400012D8189B5A1C18921AAA1344302203F87F
:100C5000502CE5E700000000DC6600000000004FBB
:100C6000CDCCCCCC67666666189A1D9B9A4210D193
:100C70009DF85F30002B09D11E9B03F00403002B6D
:100C800004D11E9B03F00803002B02D0189B013BEC
:100C90001893189B1F2B27D89DF85F30002B08D086
:100CA000189B5A1C18921AAA13442D2203F8502C90
:100CB0001AE01E9B03F00403002B08D0189B5A1C5B
:100CC00018921AAA13442B2203F8502C0CE01E9BF6
:100CD00003F00803002B07D0189B5A1C18921AAA7D
:100CE0001344202203F8502C1E9B03F00203002B18
:100CF00016D11E9B03F00103002B11D1189B1393F7
:100D0000139A1D9B9A420BD2039A531C0393059C82
:100D1000029B04992020A047139B01331393EFE714
:100D200000231293129A189B9A4212D2189A129B7D
:100D3000D31A013B1AAA134413F8500C039A531CFC
:100D40000393059C029B0499A047129B01331293C5
:100D5000E8E71E9B03F00203002B0ED0039A119BC1
:100D6000D31A1D9A9A4208D9039A531C0393059CDF
:100D7000029B04992020A047F0E7039B18461AB075
:100D800010BD00BF30B5A1B00D900C910B920A932D
:100D900000231B930C9B002B01D1A34B0D930A9BAB
:100DA0001B78002B00F046840A9B1B78252B0DD066
:100DB0000A9B18781B9A531C1B930D9C0B9B0C9938
:100DC000A0470A9B01330A9300F032BC0A9B01330F
:100DD0000A9300231F930A9B1B78203B102B57D8A4
:100DE00001A252F823F000BF690E0000910E00002E
:100DF000910E00007D0E0000910E0000910E00008B
:100E0000910E0000910E0000910E0000910E000066
:100E1000910E0000550E0000910E0000410E0000E2
:100E2000910E0000910E00002D0E00001F9B43F05C
:100E300001031F930A9B01330A9301231C932AE0A9
:100E40001F9B43F002031F930A9B01330A93012364
:100E50001C9320E01F9B43F004031F930A9B013364
:100E60000A9301231C9316E01F9B43F008031F9372
:100E70000A9B01330A9301231C930CE01F9B43F050
:100E800010031F930A9B01330A9301231C9302E072
:100E900000231C9300BF1C9B002B00D09BE700236A
:100EA0001E930A9B1B781846FFF73BFB0346002B5B
:100EB00005D00AAB1846FFF746FB1E9018E00A9BC8
:100EC0001B782A2B14D1249B1A1D24921B6816937D
:100ED000169B002B07DA1F9B43F002031F93169B00
:100EE0005B421E9301E0169B1E930A9B01330A93FB
:100EF00000231D930A9B1B782E2B24D11F9B43F4A8
:100F000080631F930A9B01330A930A9B1B78184640
:100F1000FFF707FB0346002B05D00AAB1846FFF787
:100F200012FB1D900FE00A9B1B782A2B0BD1249BF0
:100F30001A1D24921B681593159B23EAE3731D93D6
:100F40000A9B01330A930A9B1B78683B122B67D8D4
:100F500001A252F823F000BFCB0F000021100000C7
:100F60000110000021100000A50F0000211000005A
:100F700021100000211000002110000021100000AD
:100F80002110000021100000F10F000021100000CE
:100F9000211000002110000021100000211000008D
:100FA000111000001F9B43F480731F930A9B0133B1
:100FB0000A930A9B1B786C2B34D11F9B43F400735C
:100FC0001F930A9B01330A932CE01F9B43F080037D
:100FD0001F930A9B01330A930A9B1B78682B25D128
:100FE0001F9B43F040031F930A9B01330A931DE0AC
:100FF0001F9B43F480731F930A9B01330A9316E0EF
:101000001F9B43F400731F930A9B01330A930EE066
:101010001F9B43F480731F930A9B01330A9306E0DE
:1010200000BF04E000BF02E0C104000000BF0A9B53
:101030001B78253B532B00F2EE8201A252F823F0DD
:10104000FF15000017160000171600001716000005
:1010500017160000171600001716000017160000DC
:1010600017160000171600001716000017160000CC
:1010700017160000171600001716000017160000BC
:1010800017160000171600001716000017160000AC
:10109000171600001716000017160000171600009C
:1010A000171600001716000017160000171600008C
:1010B000171600001716000017160000171600007C
:1010C000171600001D140000171600001716000068
:1010D000171600001716000017160000171600005C
:1010E000171600001716000017160000171600004C
:1010F000171600001716000017160000171600003C
:1011000017160000171600001716000091110000B6
:10111000171600001716000017160000171600001B
:10112000171600001716000017160000171600000B
:1011300017160000911100005914000091110000D1
:10114000171600001D1400001716000017160000E7
:101150009111000017160000171600001716000066
:10116000171600001716000091110000B7150000B7
:101170001716000017160000E114000017160000F3
:1011800091110000171600001716000091110000C1
:101190000A9B1B78782B03D00A9B1B78582B02D113
:1011A00010231A9313E00A9B1B786F2B02D108239C
:1011B0001A930CE00A9B1B78622B02D102231A932C
:1011C00005E00A231A931F9B23F010031F930A9B29
:1011D0001B78582B03D11F9B43F020031F930A9BBE
:1011E0001B78692B07D00A9B1B78642B03D01F9BAD
:1011F00023F00C031F931F9B03F48063002B03D089
:101200001F9B23F001031F930A9B1B78692B04D0BB
:101210000A9B1B78642B40F08D801F9B03F40073A6
:10122000002B2ED0249B073323F0070303F1080281
:101230002492D3E90034CDE90E34DDE90E34002BDD
:1012400074F1000202DA5B4264EB44041946224660
:101250000F9BDB0FD8B21A9B4FF000041F9D08951F
:101260001E9D07951D9D0695CDE904340290CDE99C
:1012700000120B9B1B9A0C990D98FFF70BFB1B9010
:10128000C8E01F9B03F48073002B1ED0249B1A1D03
:1012900024921B681193119B002BB8BF5B42194627
:1012A000119BDB0FDBB21F9A05921E9A04921D9AC6
:1012B00003921A9A0292019300910B9B1B9A0C992C
:1012C0000D98FFF782FA1B90A4E01F9B03F04003E8
:1012D000002B05D0249B1A1D24921B68DBB20EE064
:1012E0001F9B03F08003002B05D0249B1A1D249222
:1012F0001B681BB203E0249B1A1D24921B681293E7
:10130000129B002BB8BF5B421946129BDB0FDBB26E
:101310001F9A05921E9A04921D9A03921A9A02929B
:10132000019300910B9B1B9A0C990D98FFF74DFAB6
:101330001B906FE01F9B03F40073002B20D0249BB5
:10134000073323F0070303F108022492D3E90034A2
:101350001A9A11464FF000021F9808901E980790A5
:101360001D980690CDE9041200220292CDE90034C6
:101370000B9B1B9A0C990D98FFF78CFA1B9049E078
:101380001F9B03F48073002B16D0249B1A1D2492FC
:101390001B681F9A05921E9A04921D9A03921A9A2C
:1013A00002920022019200930B9B1B9A0C990D98BC
:1013B000FFF70BFA1B902DE01F9B03F04003002B5F
:1013C00005D0249B1A1D24921B68DBB20EE01F9BE4
:1013D00003F08003002B05D0249B1A1D24921B6868
:1013E0009BB203E0249B1A1D24921B6813931F9B3E
:1013F00005931E9B04931D9B03931A9B029300234A
:101400000193139B00930B9B1B9A0C990D98FFF76C
:10141000DCF91B900A9B01330A9309E1249B0733F3
:1014200023F0070303F10802249293ED007B1F9B36
:1014300002931E9B01931D9B0093B0EE470AF0EEB2
:10144000670A0B9B1B9A0C990D98FFF78FFA1B905C
:101450000A9B01330A93EBE0012319931F9B03F0CE
:101460000203002B13D1199B5A1C19921E9A9A42FF
:101470008CBF01230023DBB2002B08D01B9A531C26
:101480001B930D9C0B9B0C992020A047EBE7249B02
:101490001A1D24921B68D8B21B9A531C1B930D9CD7
:1014A0000B9B0C99A0471F9B03F00203002B13D04A
:1014B000199B5A1C19921E9A9A428CBF0123002331
:1014C000DBB2002B08D01B9A531C1B930D9C0B9B6B
:1014D0000C992020A047EBE70A9B01330A93A7E071
:1014E000249B1A1D24921B6818931898FFF707F87D
:1014F00017901F9B03F48063002B07D0179A1D9B46
:101500009A4201D2179B00E01D9B17931F9B03F08B
:101510000203002B13D1179B5A1C17921E9A9A4252
:101520008CBF01230023DBB2002B08D01B9A531C75
:101530001B930D9C0B9B0C992020A047EBE7189B5D
:101540001B78002B0BD01F9B03F48063002B04D06F
:101550001D9B5A1E1D92002B01D0012300E0002389
:10156000002B0BD0189B5A1C189218781B9A531CEE
:101570001B930D9C0B9B0C99A047E0E71F9B03F06E
:101580000203002B13D0179B5A1C17921E9A9A42E3
:101590008CBF01230023DBB2002B08D01B9A531C05
:1015A0001B930D9C0B9B0C992020A047EBE70A9BFB
:1015B00001330A933CE008231E931F9B43F0210351
:1015C0001F9300238DF85330249B1A1D24921B680F
:1015D0001A461F9B05931E9B04931D9B0393102388
:1015E00002930023019300920B9B1B9A0C990D9878
:1015F000FFF7EBF81B900A9B01330A9318E01B9A44
:10160000531C1B930D9C0B9B0C992520A0470A9BF8
:1016100001330A930CE00A9B18781B9A531C1B9306
:101620000D9C0B9B0C99A0470A9B01330A9300BFAA
:10163000FFF7B5BB1B9A0B9B9A4202D30B9B5A1E1A
:1016400000E01B9A0D9C0B9B0C990020A0471B9B54
:10165000184621B030BD00BF0FB400B587B009AB4C
:10166000049303A9049B0093089B4FF0FF320548A5
:10167000FFF788FB0590059B184607B05DF804EB63
:1016800004B07047D504000000B587B00590049100
:1016900003920293029B0093039B049A05990448CA
:1016A000FFF770FB0346184607B05DF804FB00BF68
:1016B0009904000000B585B001F096F8034619467C
:1016C0001048FFF7C9FF01F089F8029001F08CF88B
:1016D000019000230393039A019B9A420DD2039B2E
:1016E0009B00029A13441B681A4603990648FFF7A9
:1016F000B3FF039B01330393EDE700BF05B05DF833
:1017000004FB00BF046700001867000010B5074B1A
:10171000D3E900014FF47A724FF0000304F0AEFDFC
:1017200003460C461846214610BD00BF10040010A9
:1017300082B00190034A019B1A60019B184602B0D7
:10174000704700BF586F000000B583B00190019B47
:101750001846FFF7EDFF054A019B1A60019B044AFA
:101760005A60019B184603B05DF804FB486F000007
:10177000001BB70082B001900B46ADF80230074B5A
:10178000D3F80C3123F00102BDF8023003491343B2
:10179000C1F80C3100BF02B0704700BF00C00F405D
:1017A00082B001900B46ADF80230074BD3F80431FC
:1017B00023F48072BDF8023003491343C1F80431A9
:1017C00000BF02B0704700BF00C00F4082B0019060
:1017D0000B46ADF80230074BD3F8083123F44072C2
:1017E000BDF8023003491343C1F8083100BF02B00D
:1017F000704700BF00C00F4082B001900B46ADF8AB
:101800000230074BD3F8B43123F44072BDF80230F4
:1018100003491343C1F8B43100BF02B0704700BFA1
:1018200000C00F4000B587B001900B46ADF8023004
:101830001346ADF80030BDF80030B3F5C07F03D2D9
:10184000BDF800300C2B0ED89B23354A354936485D
:10185000FFF702FF354800F09FFFFFF72BFF3448EA
:1018600000F09AFFFEE701238DF81730BDF8003035
:10187000BDF80220B3FBF2F102FB01F29B1A9BB20E
:10188000002B09D0BDF80020BDF80230B2FBF3F305
:101890009BB20133049307E0BDF80020BDF802308D
:1018A000B2FBF3F39BB204930123ADF80E309DF825
:1018B0001730002B2ED0049B9BB2BDF8022012FBE8
:1018C00003F39BB2BDF80E2012FB03F39BB25B0047
:1018D000ADF80C30BDF80C309B2B03D900238DF8EC
:1018E0001730E4E7BDF80E305B00ADF80E30BDF800
:1018F0000E30072BDBD9B723094A0E490E48FFF7F4
:10190000ABFE0A4800F048FFFFF7D4FE084800F09D
:1019100043FFFEE7049B184607B05DF804FB00BFD9
:10192000606F0000F06E0000D069000010680000D9
:1019300028680000046F0000986A000010B58AB0A3
:1019400001900B46ADF802301346ADF8003001238C
:10195000ADF81A30FFF7DAFE0A46014611F5FA63D0
:1019600042F10004CDE90434FFF7D0FECDE90801CF
:10197000BDF80020BDF8023019460198FFF752FF6C
:101980000390BDF80220039B02FB03F307930021A1
:101990000198FFF7EFFE00210198FFF701FF0021FA
:1019A0000198FFF713FF00210198FFF725FF2F4B48
:1019B000D3F8843023F01F02039B013B2B491343D0
:1019C000C1F88430294BD3F8843023F06003BDF88C
:1019D0001A2052011146254A0B43C2F88430234B8A
:1019E000D3F88030214A43F00103C2F880301F4B06
:1019F000AA22C3F88C201D4B5522C3F88C201B4B08
:101A0000D3F8883003F48063002B09D1DDE9081294
:101A1000DDE90434A24208BF994201D2012300E06B
:101A20000023002B04D0FFF771FECDE90801E6E7A3
:101A30000E4BD3F8883003F48063002B09D1DDE925
:101A40000812DDE90434A24208BF994201D3012300
:101A500000E00023002B01D0054B0793BDF80030B8
:101A6000079AD31A18460AB010BD00BF00C00F4035
:101A7000001BB70000B583B001900B468DF8033012
:101A80009DF803301F2B0FD94FF483730E4A0F4973
:101A90000F48FFF7E1FD0F4800F07EFEFFF70AFE5A
:101AA0000D4800F079FEFEE70C4BD3F8043123F02B
:101AB0001F029DF8033009491343C1F8043100BFE8
:101AC00003B05DF804FB00BFA46F0000186F0000B6
:101AD000146B0000106800002868000000C00F4070
:101AE00082B001900B468DF80330074BD3F80031DC
:101AF00023F001029DF8033003491343C1F800317C
:101B000000BF02B0704700BF00C00F4000B583B0F7
:101B100001900B468DF803309DF803301F2B0FD931
:101B20004FF489730E4A0F490F48FFF795FD0F4890
:101B300000F032FEFFF7BEFD0D4800F02DFEFEE77F
:101B40000C4BD3F8A83123F01F029DF8033009494C
:101B50001343C1F8A83100BF03B05DF804FB00BF18
:101B6000D46F00002C6F0000846B00001068000030
:101B70002868000000C00F4000B585B001900B46FA
:101B80008DF803300023039300210198FFF7F2FD45
:101B90009DF803300C2B16D99DF803309BB21A46E2
:101BA0000C210198FFF7CAFE03904FF48071019851
:101BB000FFF7F6FD9DF803300F4A02FB03F31A46C8
:101BC000019B5A6006E000210198FFF7E9FD019BA7
:101BD0000A4A5A6001210198FFF74CFF0121019840
:101BE000FFF794FF00210198FFF77AFF039B184647
:101BF00005B05DF804FB00BF40420F00001BB700BA
:101C000082B00190019B5B68184602B07047FFFFED
:101C100000B583B001900091019B012B10D1009B76
:101C20004FF6FF7293420BD1074B1B6803F0010381
:101C3000002B05D1044B01221A600448FFF784FDF4
:101C400000BF03B05DF804FB20040010180400106E
:101C500008B54FF6FF710120FFF7DAFF08BDFFFF5F
:101C600070B584B003900B468DF80B30134B1B6896
:101C7000039A12791046039A5279114642010A4496
:101C800053F822109DF80B3003F007020B4B1C6831
:101C9000039B1B791E46039B5B791D460323009320
:101CA00013460022039800F0E9F9024673012B4421
:101CB00044F8232000BF04B070BD00BF0000001036
:101CC00070B586B003900B468DF80B309DF80B3045
:101CD0008DF81730134B1B68039A12791046039A3C
:101CE0005279114642010A4453F822109DF81730E8
:101CF00003F003020B4B1C68039B1B791E46039BDE
:101D00005B791D460223009313460322039800F0DB
:101D1000B5F9024673012B4444F8232000BF06B0F6
:101D200070BD00BF0000001070B584B003900B467A
:101D30008DF80B30124B1B68039A12791046039AE8
:101D40005279114642010A4453F822109DF80B20A3
:101D50000B4B1C68039B1B791E46039B5B791D463E
:101D60000123009313460522039800F087F90246E9
:101D700073012B4444F8232000BF04B070BD00BFA2
:101D80000000001070B584B003900B468DF80B3046
:101D9000124B1B68039A12791046039A5279114626
:101DA00042010A4453F822109DF80B200B4B1C688B
:101DB000039B1B791E46039B5B791D460123009301
:101DC00013460622039800F059F9024673012B448A
:101DD00044F8232000BF04B070BD00BF0000001015
:101DE00070B584B003900B468DF80B30144B1B6814
:101DF000039A12791046039A5279114642010A4415
:101E000053F822109DF80B3083F00103DBB21A4621
:101E10000B4B1C68039B1B791E46039B5B791D467D
:101E20000123009313460722039800F027F9024686
:101E300073012B4444F8232000BF04B070BD00BFE1
:101E40000000001070B584B003900B468DF80B3085
:101E5000144B1B68039A12791046039A5279114663
:101E600042010A4453F822109DF80B3083F001031D
:101E7000DBB21A460B4B1C68039B1B791E46039B67
:101E80005B791D460123009313460822039800F056
:101E9000F5F8024673012B4444F8232000BF04B038
:101EA00070BD00BF0000001070B584B003900B46F9
:101EB0008DF80B30124B1B68039A12791046039A67
:101EC0005279114642010A4453F822109DF80B2022
:101ED0000B4B1C68039B1B791E46039B5B791D46BD
:101EE0000123009313460922039800F0C7F8024625
:101EF00073012B4444F8232000BF04B070BD00BF21
:101F00000000001070B584B003900B468DF80B30C4
:101F1000144B1B68039A12791046039A52791146A2
:101F200042010A4453F822109DF80B3083F001035C
:101F3000DBB21A460B4B1C68039B1B791E46039BA6
:101F40005B791D460123009313460822039800F095
:101F500095F8024673012B4444F8232000BF04B0D7
:101F600070BD00BF0000001070B584B003900B4638
:101F70008DF80B30124B1B68039A12791046039AA6
:101F80005279114642010A4453F822109DF80B2061
:101F90000B4B1C68039B1B791E46039B5B791D46FC
:101FA0000123009313460922039800F067F80246C4
:101FB00073012B4444F8232000BF04B070BD00BF60
:101FC0000000001070B584B003900B468DF80B3004
:101FD000124B1B68039A12791046039A52791146E4
:101FE00042010A4453F822109DF80B200B4B1C6849
:101FF000039B1B791E46039B5B791D4601230093BF
:1020000013460A22039800F039F8024673012B4464
:1020100044F8232000BF04B070BD00BF00000010D2
:1020200070B584B003900B468DF80B30124B1B68D3
:10203000039A12791046039A5279114642010A44D2
:1020400053F822109DF80B200B4B1C68039B1B7947
:102050001E46039B5B791D46012300931346102205
:10206000039800F00BF8024673012B4444F8232038
:1020700000BF04B070BD00BF0000001086B0039028
:10208000029101920093069BC3F120034FF0FF32AF
:1020900022FA03F30593059A019B02FA03F3DB434B
:1020A000029A13400293009A059B1A40019B02FA80
:1020B00003F3029A13430293029B184606B070473B
:1020C00000B589B00190009180238DF81F30009BEE
:1020D00007EE903AF8EE677ACDED067A02AB9DED09
:1020E000060A0199184600F02DFA029B1B0A8DF88A
:1020F0001730029B8DF81630049BDBB21B01DAB25D
:10210000039BDBB203F00F03DBB213438DF81530F2
:10211000019B1B791A46164B53F8223080221A7302
:10212000019B1B791A46124B53F822309DF8172059
:102130001A71019B1B791A460D4B53F822309DF8FA
:1021400016201A70019B1B791A46094B53F822304E
:102150009DF8152083F82820019B1B791A46044B13
:1021600053F8223003221A7300BF09B05DF804FB54
:102170000400001000B585B00190009107238DF890
:102180000F302D4B1B68D3F8C410019B1B791A46E6
:102190002A4B53F82220284B1B680A43C3F8C4205B
:1021A000019BD868019BDB681B681B68019A127948
:1021B0001146234A525C11469847019B9868019B3F
:1021C0009B681B681B68019A127911461D4A525C74
:1021D00011469847019BDA68019BDB681B68043352
:1021E0001B68022110469847019B9A68019B9B68D7
:1021F0001B6804331B68022110469847019B1B682B
:102200001B68009901989847019B1B791A460E4B51
:1022100053F822301B7ADAB2019B1B7919460A4B1C
:1022200053F8213042F00702D2B21A720123184645
:1022300005B05DF804FB00BF5400001014700000EE
:10224000107000000C7000000400001082B00190BB
:102250000B468DF80330019B1B791A460D4B53F842
:1022600022309DF803201A70019B1B791A46094BF6
:1022700053F822301B7DDBB203F02003002B0CBF90
:1022800001230023DBB2002B01D000BFECE700BF2D
:1022900002B070470400001082B00190019B1B68DF
:1022A0001B791A46074B53F822301B7DDBB203F033
:1022B0000103002B14BF01230023DBB2184602B038
:1022C000704700BF040000102DE910488BB001904A
:1022D0000091FF238DF82730009B4FF00004019AF6
:1022E000CDE9063402924FF000034FF00004CDE92F
:1022F0000434DDE90634B4F1FF3F08BFB3F1FF3F1A
:1023000006D14FF0FF334FF0FF34CDE904340BE03A
:10231000FFF7FCF90A460146DDE9063413EB010B31
:1023200044EB020CCDE904BC01230393FFF7EEF963
:102330000A460146DDE90434A24208BF994234BF8F
:1023400001230023DBB2002B08D002AB1846FFF7B5
:10235000A3FF0346002BE9D000230393039B0893BC
:10236000089B002B08D1019B1B791A46054B53F89B
:1023700022301B788DF827309DF8273018460BB097
:10238000BDE81088040000108AB0039002918DED22
:10239000010A039B00221A60039B00225A60039BE0
:1023A00001229A6000238DF8273000230893089BB0
:1023B0000E2B52DC9DF82730002B4ED1089B0133A9
:1023C0000793079B0E2B44DC9DF82730002B40D150
:1023D000089B07EE903AF8EEE77ACDED067A079B78
:1023E00007EE903AF8EEE77ACDED057ADDED066A74
:1023F0009DED057AC6EE877AB7EE007A77EE877A9A
:10240000CDED047ADDED047A9FED167A77EE877ACA
:102410009DED017AB4EEE77AF1EE10FA15D8DDED14
:10242000047A9FED107A77EEC77A9DED017AB4EECB
:10243000E77AF1EE10FA08DB089A039B5A60079AD4
:10244000039B9A6001238DF82730079B0133079384
:10245000B7E7089B01330893A9E700BF03980AB0C8
:10246000704700BFCDCC4C3D84B003908DED020A87
:10247000CDED010ADDED027AB3EE007A27EE877A20
:10248000DDED017A67EE277A9FED047AC7EE276AC1
:10249000F0EE667AB0EE670A04B07047001B374C66
:1024A00084B003908DED020ACDED010ADDED027AD4
:1024B000B3EE007A27EE877ADDED017A67EE277AB0
:1024C0009FED047AC7EE276AF0EE667AB0EE670AEF
:1024D00004B07047001B374C00B587B001908DEDFC
:1024E000000A00238DF817309DED000A03F046FE28
:1024F0008DED040A9DED007ADDED047A77EE677AC2
:10250000CDED037ADDED037A9FED0C7AF4EEC77A18
:10251000F1EE10FA0BDBDDED037A9FED097AF4EEB4
:10252000C77AF1EE10FA02D801238DF817309DF822
:102530001730184607B05DF804FB00BFCDCC4CBD8A
:10254000CDCC4C3D10B58EB0079006918DED050AAF
:1025500000230D93079B00221A60079B00225A60FC
:10256000079B01229A604FF000030C934FF07F53BA
:102570000B934FF07E530A934FF0804309930D9BCA
:10258000042B00F0C1800D9B042B00F2BB8001A244
:1025900052F823F0A925000005260000652600005A
:1025A000D526000005270000F7EE000A9DED050A7C
:1025B0000698FFF759FF8DED0C0ADDED0C7AB7EEAA
:1025C000007AF4EEC77AF1EE10FA05D5079B0022E7
:1025D0001A6004230D9396E09DED0C0A0698FFF710
:1025E0007BFF0346002B0AD0DDED0C7AFCEEE77A88
:1025F00017EE902A079B1A6004230D9383E00123B2
:102600000D9380E0DDED0B0A9DED050A0698FFF7BE
:102610002BFFF0EE407AB0EE670A03F0AFFD8DEDD0
:102620000C0ADDED0C0A9DED050A0698FFF738FF50
:102630008DED0B0ADDED0B7A9FED357AF4EEC77A5E
:10264000F1EE10FA0BDBDDED0B7A9FED327AF4EE52
:10265000C77AF1EE10FA02D803230D9353E0022358
:102660000D9350E0DDED097AB7EE007A77EE877AC8
:10267000CDED097ADDED0A7AB2EE0E7AF4EEC77A84
:10268000F1EE10FA02DD04230D933CE0DDED097A52
:10269000B2EE0E7AF4EEC77AF1EE10FA0FDDDDED50
:1026A0000A7AB7EE007A77EE877ACDED0A7ADDED19
:1026B0000A7AB7EE007A77EE877ACDED097ADDED0A
:1026C0000A6A9DED097AC6EE877ACDED0B7A012371
:1026D0000D9318E0079C6B469DED0B0A0699184672
:1026E000FFF752FE6B4693E8070084E80700DDED34
:1026F0000C7AFCEEE77A17EE902A079B1A60042307
:102700000D9300E000BF3AE700BF07980EB010BD80
:10271000CDCC8C3F3333F33F00B583B00190019BA8
:10272000DBB219460348FFF791FD0123184603B0B9
:102730005DF804FB5800001082B0019000BFFDE777
:1027400001231846704782B0019000914FF0FF338B
:10275000184602B07047FFFF00B583B003468DF8FE
:102760000730054B1B689DF807201046984700BFAF
:1027700003B05DF804FB00BF6800001000B583B033
:102780000190044B1B68019898470346184603B014
:102790005DF804FB6800001000B585B001900023CF
:1027A0000393039B019A13441B78002B0BD00A4B15
:1027B0001B68039A01990A44127810469847039BB4
:1027C00001330393EDE7044B1B680A209847039BF2
:1027D000184605B05DF804FB68000010014B184670
:1027E000704700BF24040010014B1B681846704757
:1027F0002405001000B583B001900091019B012BCE
:1028000010D1009B4FF6FF7293420BD1074B1B6810
:1028100003F00103002B05D1044B01221A60044888
:10282000FEF792FF00BF03B05DF804FB2004001028
:102830001804001008B54FF6FF710120FFF7DAFF0A
:1028400008BD82B003468DF807309DF80730184662
:1028500002B0704710B483B00190019A4FF47A73BC
:102860004FF00004C2E90034019B00229A60019BF2
:102870000022DA60019B00221A61019B00225A614A
:10288000019B00229A61019B0022DA61019B0022D8
:1028900083F82020019BFF2283F82120019B002246
:1028A00083F82220019B002283F82320019B1846F5
:1028B00003B05DF8044B704710B485B003900192EB
:1028C00000930B468DF80B30039ADDE90E34C2E914
:1028D0000034039B009A9A60039B079ADA60039B7B
:1028E000089A1A61039B019A5A61039B069A9A619E
:1028F000039B0B9ADA61039B9DF8302083F820201C
:10290000039B9DF80B2083F82120039B9DF8242036
:1029100083F82220039B9DF8282083F823209DF82C
:102920000B305B00DAB2039B83F821209DF8303036
:10293000012B08D1039B93F8213043F00103DAB255
:10294000039B83F82120039B184605B05DF8044BD8
:102950007047FFFF00B585B003460A468DF8073083
:1029600013468DF806309DF807301846FFF769FFCB
:1029700003468DF80F309DF80F20074913469B0042
:102980001344DB000B4423339DF806201A7000BF6C
:1029900005B05DF804FB00BF2805001000B583B04A
:1029A0000190019B1B7F032B0FD14FF4AC73434A63
:1029B00043494448FEF750FE4348FFF7EDFEFEF75B
:1029C00079FE4248FFF7E8FEFEE7019B9B7F83F01C
:1029D0000103DBB2002B39D0019B5A68019B5B6875
:1029E0001B681B68022110469847019B9A68019B4F
:1029F0009B681B681B68022110469847019B5A6818
:102A0000019B5B681B6824331B68012110469847B3
:102A1000019B9A68019B9B681B6824331B680121FA
:102A200010469847019B5A68019B5B681B680433FA
:102A30001B68002110469847019B9A68019B9B6880
:102A40001B6804331B68002110469847019B1B7FBD
:102A50001A461F4B53F82230E0225A61019B1B7F1C
:102A60001A461B4B53F822304FF4D0721A61019B67
:102A70001B7F1A46164B53F822303C229A61019B69
:102A80001B7F1A46124B53F8223040221A60019BDA
:102A90001B7F1A460F4B9856019B1B7F1A460E4B05
:102AA00053F822104FF0FF33012200F00FFF019B7B
:102AB00001225A7700BF03B05DF804FB9074000058
:102AC000187400009470000030710000487100001C
:102AD0006C0000101474000078000010F0B599B07C
:102AE0000D900B920A930B468DF833301E9B4FF0DE
:102AF00000049DF833100EA8CDE908340123069395
:102B000000230593012304930023039300230293DE
:102B10000A9B01930B9B009300230022FFF7CCFE3E
:102B20000D9B1B7F1A4613469B001344DB00134A80
:102B300013440EAC1F4604F1200C3D4626460FCE32
:102B400028606960AA60EB60103410376445F4D1E6
:102B50003B462246106818600D9B1B7F1A46084BA7
:102B600053F8223020221A600D9B1B6810331B681B
:102B70000D9898470346184619B0F0BD2805001077
:102B80006C000010F0B599B00D900B920A930B46B3
:102B90008DF833301E9B4FF000049DF833100EA8C3
:102BA000CDE9083400230693002305930123049301
:102BB0000023039300230293002301930023009337
:102BC0000A9B0B9AFFF778FE0D9B1B7F1A46134654
:102BD0009B001344DB00134A13440EAC1F4604F160
:102BE000200C3D4626460FCE28606960AA60EB6047
:102BF000103410376445F4D13B4622461068186003
:102C00000D9B1B7F1A46084B53F8223020221A6076
:102C10000D9B1B6810331B680D9898470346184698
:102C200019B0F0BD280500106C000010F0B599B087
:102C30000D900B920A930B468DF83330209B4FF08A
:102C400000049DF833100EA8CDE908340023069344
:102C5000002305930123049301230393002302938C
:102C60001F9B01931E9B00930A9B0B9AFFF724FE68
:102C70000D9B1B7F1A4613469B001344DB00134A2F
:102C800013440EAC1F4604F1200C3D4626460FCEE1
:102C900028606960AA60EB60103410376445F4D195
:102CA0003B462246106818600D9B1B7F1A46084B56
:102CB00053F8223020221A600D9B1B6810331B68CA
:102CC0000D9898470346184619B0F0BD2805001026
:102CD0006C00001082B00190019B1B681B7F19469D
:102CE000064A0B469B000B44DB00134423331B783E
:102CF00083F00103DBB2184602B0704728050010CC
:102D00002DE910488DB00390039B5B7F83F0010396
:102D1000DBB2002B12D0039B1B7F009340F2B11358
:102D2000554A56495648FEF797FC5648FFF734FD7A
:102D3000FEF7C0FC5448FFF72FFDFEE7039B1B7F07
:102D40001946524A0B469B000B44DB001344D3E95F
:102D50000034039ACDE9083404924FF000034FF099
:102D60000004CDE90634DDE90834B4F1FF3F08BFC3
:102D7000B3F1FF3F06D14FF0FF334FF0FF34CDE901
:102D800006340BE0FEF7C2FC0A460146DDE90834D2
:102D900013EB010B44EB020CCDE906BC01230593B8
:102DA000FEF7B4FC0A460146DDE90634A24208BF3C
:102DB000994234BF01230023DBB2002B08D004ABBF
:102DC0001846FFF787FF0346002BE9D00023059341
:102DD000059B0B930B9B012B37D1039B1B7F1A4643
:102DE0002B4B53F8223014221A60039B1B7F194689
:102DF000264A0B469B000B44DB00134408331B6838
:102E0000002B16D0039B1B7F1946204A0B469B00C4
:102E10000B44DB0013440C331B68002B09D0039BCD
:102E20001B7F009340F2C113134A1A491A48FEF758
:102E300013FC039B1B7F1946144A0B469B000B4453
:102E4000DB0013441C3301221A60039B1B7F1A46CC
:102E50000F4B53F8223020229A61039B1B7F1946A7
:102E60000A4A0B469B000B44DB0013441C331B68CF
:102E700018460DB0BDE8108864740000207400008E
:102E800040720000307100004871000028050010F9
:102E90006C000010287400001873000000B589B0A1
:102EA000944B1B685B6805930023079300230693EC
:102EB000059B302B00F09780302B0FD8102B30D093
:102EC000102B04D8002B1FD0082B23D0EFE0202B91
:102ED0004DD0282B57D0182B2AD0E8E0482B00F0F3
:102EE0009880482B06D8382B00F08480402B00F0C7
:102EF0008480DCE0582B00F0C080F82B00F0E980E3
:102F0000502B00F09280D2E07B4B0222DA61142336
:102F10000693DFE0784B93F82120764B1B689A608C
:102F2000D8E0754B93F82120724B1B689A60D1E072
:102F300020230793704B9B68002B09D100210020B0
:102F4000FFF708FD6C4B0022DA6110230693C1E005
:102F5000694B1B695A1C68490A610093664B5A69A0
:102F6000009B13441A78634B1B689A60B2E02023DD
:102F7000079300210020FFF7EDFC5F4B0322DA618D
:102F800010230693A6E05C4B1A695B4B9B689A4240
:102F90001AD3594B93F82230002B0ED0564B93F88E
:102FA000213043F00103DAB2534B83F82120524B16
:102FB00000221A61202306938CE000210020FFF7F5
:102FC000C9FC1023069385E04B4B1B695A1C4A49E8
:102FD0000A610193484B5A69019B13441A78454B87
:102FE0001B689A6076E000210020FFF7B3FC1023F5
:102FF00006936FE0202306936CE03F4BDB68002BC9
:1030000002D12423079365E020230793042306932A
:1030100060E020230793384B0322DA61002100206F
:10302000FFF798FC1023069354E0334BDB680393BF
:10303000314B1B69039A9A4210D92F4B1B6902939B
:103040002C4B1B6899682C4B9A69029B1344CAB29B
:103050001A70294B1B690133274A1361264B1B69E0
:10306000039A9A4202D90423069333E000210020F8
:10307000FFF770FC042307932CE000210020FFF7EA
:1030800069FC1D4BDB68002B0ED01B4B1B695A1CC7
:1030900019490A610493174B1B689968164B9A6982
:1030A000049B1344CAB21A701023069312E0102333
:1030B00007934FF49373114A11491248FEF7CCFA63
:1030C0001148FFF769FBFEF7F5FA1048FFF764FBBC
:1030D000FEE700BF079B43F008030793054B1B68FF
:1030E000079A9A61034B1B68069A1A6000BF09B0E1
:1030F0005DF804FB6C000010280500103875000016
:1031000030740000AC7300003071000048710000A2
:1031100000B589B0944B5B685B6805930023079307
:1031200000230693059B302B00F09780302B0FD89F
:10313000102B30D0102B04D8002B1FD0082B23D0FD
:10314000EFE0202B4DD0282B57D0182B2AD0E8E0C9
:10315000482B00F09880482B06D8382B00F084804C
:10316000402B00F08480DCE0582B00F0C080F82B6E
:1031700000F0E980502B00F09280D2E07B4B0222DD
:103180005A6414230693DFE0784B93F84920764B7A
:103190005B689A60D8E0754B93F84920724B5B6886
:1031A0009A60D1E020230793704B1B6B002B09D151
:1031B00000210120FFF7CEFB6C4B00225A64102344
:1031C0000693C1E0694B9B6B5A1C68498A63009364
:1031D000664BDA6B009B13441A78634B5B689A600A
:1031E000B2E02023079300210120FFF7B3FB5F4BE0
:1031F00003225A6410230693A6E05C4B9A6B5B4B48
:103200001B6B9A421AD3594B93F84A30002B0ED0BD
:10321000564B93F8493043F00103DAB2534B83F82D
:103220004920524B00229A63202306938CE0002110
:103230000120FFF78FFB1023069385E04B4B9B6B20
:103240005A1C4A498A630193484BDA6B019B134429
:103250001A78454B5B689A6076E000210120FFF701
:1032600079FB102306936FE0202306936CE03F4B1D
:103270005B6B002B02D12423079365E02023079387
:103280000423069360E020230793384B03225A64FB
:1032900000210120FFF75EFB1023069354E0334B1F
:1032A0005B6B0393314B9B6B039A9A4210D92F4B64
:1032B0009B6B02932C4B5B6899682C4B1A6C029B9E
:1032C0001344CAB21A70294B9B6B0133274A93638C
:1032D000264B9B6B039A9A4202D90423069333E050
:1032E00000210120FFF736FB042307932CE0002187
:1032F0000120FFF72FFB1D4B5B6B002B0ED01B4BF0
:103300009B6B5A1C19498A630493174B5B68996835
:10331000164B1A6C049B1344CAB21A7010230693FE
:1033200012E0102307934FF49373114A1149124886
:10333000FEF792F91148FFF72FFAFEF7BBF9104894
:10334000FFF72AFAFEE700BF079B43F00803079345
:10335000054B5B68079A9A61034B5B68069A1A6093
:1033600000BF09B05DF804FB6C00001028050010D8
:10337000F474000038740000AC7300003071000079
:103380004871000000B589B0944B9B685B68059359
:103390000023079300230693059B302B00F09780B2
:1033A000302B0FD8102B30D0102B04D8002B1FD06F
:1033B000082B23D0EFE0202B4DD0282B57D0182BF3
:1033C0002AD0E8E0482B00F09880482B06D8382B0C
:1033D00000F08480402B00F08480DCE0582B00F06B
:1033E000C080F82B00F0E980502B00F09280D2E0F2
:1033F0007B4B0222DA6614230693DFE0784B93F8C6
:103400007120764B9B689A60D8E0754B93F87120D9
:10341000724B9B689A60D1E020230793704B9B6DA1
:10342000002B09D100210220FFF794FA6C4B0022F7
:10343000DA6610230693C1E0694B1B6E5A1C68497B
:103440000A660093664B5A6E009B13441A78634BCE
:103450009B689A60B2E02023079300210220FFF7C7
:1034600079FA5F4B0322DA6610230693A6E05C4BE1
:103470001A6E5B4B9B6D9A421AD3594B93F872307C
:10348000002B0ED0564B93F8713043F00103DAB2A3
:10349000534B83F87120524B00221A662023069367
:1034A0008CE000210220FFF755FA1023069385E0F7
:1034B0004B4B1B6E5A1C4A490A660193484B5A6E85
:1034C000019B13441A78454B9B689A6076E0002173
:1034D0000220FFF73FFA102306936FE020230693A4
:1034E0006CE03F4BDB6D002B02D12423079365E09A
:1034F000202307930423069360E020230793384B8F
:103500000322DA6600210220FFF724FA1023069333
:1035100054E0334BDB6D0393314B1B6E039A9A429D
:1035200010D92F4B1B6E02932C4B9B6899682C4B28
:103530009A6E029B1344CAB21A70294B1B6E013358
:10354000274A1366264B1B6E039A9A4202D904231C
:10355000069333E000210220FFF7FCF904230793D0
:103560002CE000210220FFF7F5F91D4BDB6D002B4D
:103570000ED01B4B1B6E5A1C19490A660493174B3D
:103580009B689968164B9A6E049B1344CAB21A70D2
:103590001023069312E0102307934FF49373114AFC
:1035A00011491248FEF758F81148FFF7F5F8FEF7F1
:1035B00081F81048FFF7F0F8FEE700BF079B43F0E3
:1035C00008030793054B9B68079A9A61034B9B6816
:1035D000069A1A6000BF09B05DF804FB6C00001089
:1035E00028050010B074000040740000AC730000A7
:1035F000307100004871000000B583B00190019B5C
:10360000184600F005F8019B184603B05DF804FB6E
:1036100082B00190019B00221A60019B184602B003
:103620007047FFFF30B583B001900091019B012BE3
:103630001BD1009B4FF6FF72934216D10C4B1B68B7
:1036400003F00103002B0DD1094B01221A60094B35
:1036500002241D46002C05DB2846FFF7FBF8283521
:10366000013CF7E70448FFF7C7FF00BF03B030BDD8
:10367000A405001028050010A005001008B54FF69D
:10368000FF710120FFF7CEFF08BDFFFF82B00346A8
:103690008DF807309DF9073003F01F0205499DF9A9
:1036A00007305B09012000FA02F241F8232000BF35
:1036B00002B0704700E100E082B0034600918DF84F
:1036C00007309DF90730002B0CDA009BDAB20D4968
:1036D0009DF9073003F00F03043B5201D2B20B44B3
:1036E0001A760BE0009BDBB2074A9DF907100846EB
:1036F0005B01D9B213180A4683F8002300BF02B059
:10370000704700BF00ED00E000E100E010B4074B9F
:10371000D3E9001211F57A7342F10004034AC2E9B9
:10372000003400BF5DF8044B704700BF1004001068
:1037300082B001900091034A009B136000BF02B069
:10374000704700BFA805001084B0019000238DF8D9
:103750000F30174B1B685B68002B14BF012300233D
:10376000DBB2002B1ED0124B1B6800229A60104B5C
:103770001B681A680E4B1B6842F002021A600C4B61
:103780001B681A680A4B1B6842F001021A60084B5A
:103790001B681A68064B1B6842F004021A6001237A
:1037A0008DF80F309DF80F30184604B0704700BFF9
:1037B0008400001082B00190074B1B6800225A6001
:1037C000054B1B6800229A60034B1B6800221A609D
:1037D00000BF02B0704700BF8400001000B585B084
:1037E00001900091009B002B01D0009B00E0012381
:1037F00000931448FEF704FA0246009BB2FBF3F371
:10380000013B03930F48FEF7FBF90346009AB3FB15
:10381000F2F2009901FB02F29B1A0293039BB3F1AF
:10382000807F05D36FF07F4303936FF07F43029354
:10383000054B1B68039A5A60029B184605B05DF859
:1038400004FB00BF180400108400001000B587B00E
:1038500010230593154B5B688DF813309DF81330DA
:10386000103B134A52F823300393039B114A9342AF
:1038700015D19DF813309DF81320103A0192009352
:10388000C2230D4A0D490E48FDF7E6FE0D48FEF72E
:1038900083FFFDF70FFF0C48FEF77EFFFEE7039B5B
:1038A000984700BF07B05DF804FB00BF00ED00E0E3
:1038B0008C0000104D380000F47A00008C7A000073
:1038C000DC780000687600008076000000B585B0E6
:1038D0000291019303468DF80F3013468DF80E3098
:1038E0009DF90F300D49029A41F823209DF80E30C2
:1038F000002B04D09DF90F301846FFF7C7FE019B3F
:10390000002B06DB019A9DF90F3011461846FFF790
:10391000D3FE00BF05B05DF804FB00BF8C000010B3
:1039200000B58FB00590059B1B680D93059B5B68E8
:103930000C93059B9B680B93059BDB680A93059B87
:103940001B690993059B5B690893059B9B6907931A
:10395000059BDB6906930D9B0C9A0B990A980390C3
:10396000029101920093F823104A11491148FDF782
:1039700073FE099B089A0799069803900291019299
:103980000093FC23094A0C490C48FDF765FEFE2311
:10399000064A0B490B48FDF75FFE0B48FEF7FCFE9D
:1039A000FDF788FE0948FEF7F7FEFEE7107B0000F2
:1039B0009C7A000060790000AC7A0000A0790000D9
:1039C000BC7A0000E0790000687600008076000094
:1039D00000B583B001900091019B012B10D1009B99
:1039E0004FF6FF7293420BD1074B1B6803F00103A4
:1039F000002B05D1044B01221A600448FDF7A4FEF8
:103A000000BF03B05DF804FB200400101804001090
:103A100008B54FF6FF710120FFF7DAFF08BD00BFC0
:103A20007047FFFF00B583B01D491E48FFF780FEB9
:103A30004FF47A711B48FFF7D1FE1A48FFF784FE56
:103A400003468DF807309DF8073083F00103DBB2A1
:103A5000002B05D0A123144A14491548FDF7FCFD9D
:103A600030211448FEF788F80346002B14BF0123C9
:103A70000023DBB2002B01D000BFF1E701210D488C
:103A8000FEF744F84FF47A710648FFF7A7FE4FF4AB
:103A900016410948FEF76EFB00BF03B05DF804FB5A
:103AA0001F3A000088000010F47E0000E87E00004D
:103AB000B07E0000180400105800001008B5FCF794
:103AC0005DFBFCF7A3FBFCF7D1FB02F05FFDFFF70A
:103AD000A9FF00BF08BDFFFF80B584B000AF094B50
:103AE000FB60FB683B603B6883F30988FB687B6095
:103AF0007B6883F30888FFF7E1FF01F089FDB86078
:103B0000FEE700BF0000011000B583B001900091F6
:103B1000019B012B10D1009B4FF6FF7293420BD1FA
:103B2000074B1B6803F00103002B05D1044B012256
:103B30001A600448FDF708FE00BF03B05DF804FBFF
:103B4000200400101804001008B54FF6FF71012082
:103B5000FFF7DAFF08BDFFFF82B00190034A019B27
:103B60001A60019B184602B0704700BFA88E000083
:103B700000B583B001900B468DF8033013468DF8E5
:103B80000230019B1846FFF7E7FF084A019B1A60C5
:103B9000019B9DF803201A71019B9DF802205A7128
:103BA000019B184603B05DF804FB00BF44700000A1
:103BB00082B001900023184602B0704708B500207B
:103BC000FFF7F6FF0346184608BD2DE9104889B0F7
:103BD000CDE90001DDE90034CDE906348DF8082097
:103BE0004FF000034FF00004CDE90434DDE9063462
:103BF000B4F1FF3F08BFB3F1FF3F06D14FF0FF33F1
:103C00004FF0FF34CDE904340BE0FDF77FFD0A46A9
:103C10000146DDE9063413EB010B44EB020CCDE960
:103C200004BC01230393FDF771FD0A460146DDE95B
:103C30000434A24208BF994234BF01230023DBB2FF
:103C4000002B08D002AB1846FFF7B2FF0346002B4B
:103C5000E9D000230393039B184609B0BDE8108800
:103C600000B583B0CDE90001DDE90001FFF7ADFF4C
:103C700000BF03B05DF804FB00B585B00190009172
:103C80007C20FEF77BFD00230393039A009B9A425E
:103C900018D2019A039B13441B78184602F09AFC31
:103CA0000346002B07D0019A039B13441B78184648
:103CB000FEF764FD02E02E20FEF760FD039B01335A
:103CC0000393E2E70348FEF767FD00BF05B05DF828
:103CD00004FB00BF087F000000B585B00190009193
:103CE00000230393039B0F2B19D8039A009B9A423E
:103CF00008D2019A039B13441B7819460B48FDF721
:103D0000ABFC02E00A48FDF7A7FC039B072B02D19E
:103D10002020FEF733FD039B01330393E2E72020CD
:103D2000FEF72CFD00BF05B05DF804FB0C7F000022
:103D3000147F000000B587B001900091019B0493AF
:103D40000023059300230593059A009B9A4221D2F4
:103D500005991448FDF780FC059B0F33009A9A42A1
:103D600004D2059A009BD31A0F3300E0102303936B
:103D7000049A059B134403991846FFF7ADFF049A74
:103D8000059B134403991846FFF776FF059B1033F4
:103D90000593D9E700990448FDF75EFC00BF07B022
:103DA0005DF804FB187F0000207F000082B00190C6
:103DB000034A019B1A60019B184602B0704700BF7E
:103DC0007C8E000000B583B001900B468DF8033067
:103DD00013468DF80230019B1846FFF7E7FF019B61
:103DE00004339DF802209DF803101846FFF7C0FE2B
:103DF000054A019B1A60054A019B5A60019B1846BF
:103E000003B05DF804FB00BF1C8E0000488E00006C
:103E100000B583B00190019B1A1D019B5B681B6874
:103E2000002110469847019B1B7A1A460B4B53F80A
:103E300022301A68019B5B7A194601238B40DB43D1
:103E40001946019B1B7A1846044B53F820300A4050
:103E50001A6000BF03B05DF804FB00BF6C010010E6
:103E600000B583B00190019B1A1D019B5B681B6824
:103E7000002110469847019B1B7A1A460A4B53F8BB
:103E800022301A68019B5B7A194601238B40194640
:103E9000019B1B7A1846044B53F820300A431A60E2
:103EA00000BF03B05DF804FB6C01001000B583B0E7
:103EB00001900B468DF803309DF80330002B06D09F
:103EC000019B1B6804331B680198984704E0019B21
:103ED0001B681B680198984700BF03B05DF804FB9E
:103EE00082B00190019B5B7A1A46012303FA02F229
:103EF000019B1B7A1946034B53F821309A6100BF8E
:103F000002B070476C01001082B00190019B5B7A97
:103F10001A46012303FA02F2019B1B7A1946034B4E
:103F200053F82130DA6100BF02B070476C01001015
:103F300000B583B001900B468DF803309DF8033037
:103F4000002B06D0019B1B680C331B680198984717
:103F500005E0019B1B6810331B680198984700BF60
:103F600003B05DF804FBFFFF82B00190019B1B7A58
:103F70001A460A4B53F822305A69019B5B7A19465C
:103F800001238B401946019B1B7A1846034B53F8BB
:103F900020304A405A6100BF02B070476C010010E7
:103FA00082B00190019B1B7A1A46074B53F82230CE
:103FB0005B69019A527AD340DBB203F00103DBB2B2
:103FC000184602B0704700BF6C01001082B001902B
:103FD000019B1B7A1A46084B53F822305B69019A01
:103FE000527AD34003F00103002B14BF01230023B6
:103FF000DBB2184602B070476C01001000B585B006
:10400000019000238DF80F309DF80F30032B3DD821
:104010009DF80F2013465B0013449B00019A134444
:10402000181D9DF80F2013465B0013449B009DF85C
:104030000F20019913465B0013449B000B4404338B
:104040001B6804331B6898479DF80F2013465B00DC
:1040500013449B00019A1344181D9DF80F2013462A
:104060005B0013449B009DF80F20019913465B00F1
:1040700013449B000B4404331B680C331B689847A4
:104080009DF80F3001338DF80F30BDE700BF05B04C
:104090005DF804FB00B585B003900B468DF80B303E
:1040A0009DF80B30032B11D99DF80B300093312371
:1040B000164A17491748FDF7CFFA1748FEF76CFB69
:1040C000FDF7F8FA1548FEF767FBFEE79DF80B20B1
:1040D00013465B0013449B00039A1344181D9DF87C
:1040E0000B2013465B0013449B009DF80B200399A3
:1040F00013465B0013449B000B4404331B681033CE
:104100001B68984700BF05B05DF804FB708F000086
:104110004C8C0000507F0000DC7F0000F47F00002A
:1041200000B585B003900B468DF80B309DF80B3031
:10413000032B11D99DF80B3000933923164A1749E8
:104140001748FDF789FA1748FEF726FBFDF7B2FA84
:104150001548FEF721FBFEE79DF80B2013465B0098
:1041600013449B00039A1344181D9DF80B2013461B
:104170005B0013449B009DF80B20039913465B00E2
:1041800013449B000B4404331B680C331B68984793
:1041900000BF05B05DF804FB488F00005C8C000098
:1041A000507F0000DC7F0000F47F000000B585B088
:1041B00003900B468DF80B3013468DF80A309DF8AE
:1041C0000B30032B11D99DF80B3000934223144A76
:1041D00014491548FDF740FA1448FEF7DDFAFDF7DB
:1041E00069FA1348FEF7D8FAFEE79DF80A30012B6A
:1041F00009D1039B1B6804331B689DF80B201146F3
:104200000398984708E0039B1B6808331B689DF8D8
:104210000B2011460398984700BF05B05DF804FBDA
:10422000008F00006C8C0000507F0000DC7F0000DD
:10423000F47F000000B585B003900B468DF80B307D
:104240009DF80B30032B11D99DF80B3000935123AF
:10425000164A17491748FDF7FFF91748FEF79CFA69
:10426000FDF728FA1548FEF797FAFEE79DF80B20B0
:1042700013465B0013449B00039A1344181D9DF8DA
:104280000B2013465B0013449B009DF80B20039901
:1042900013465B0013449B000B4404331B68183324
:1042A0001B68984700BF05B05DF804FBD48E000082
:1042B0007C8C0000507F0000DC7F0000F47F000059
:1042C00000B585B001900B468DF8033000238DF8C2
:1042D0000F309DF80F30032B22D89DF803209DF856
:1042E0000F3042FA03F303F00103002B09D0019BC6
:1042F0001B680C331B689DF80F100122019898472A
:1043000008E0019B1B680C331B689DF80F1000220E
:10431000019898479DF80F3001338DF80F30D8E79A
:1043200000BF05B05DF804FB00B585B00190002327
:10433000039300238DF80B309DF80B30032B2BD803
:104340009DF80B2013465B0013449B00019A134415
:10435000181D9DF80B2013465B0013449B009DF82D
:104360000B20019913465B0013449B000B4404335C
:104370001B6820331B68984703461A469DF80B308C
:1043800002FA03F31A46039B134303939DF80B3081
:1043900001338DF80B30CFE7039BDBB2184605B035
:1043A0005DF804FB82B00190034A019B1A60019BF7
:1043B000184602B0704700BFE08D000000B583B022
:1043C0000190019B1846FFF7EDFF164A019B1A600A
:1043D000019B03F10C02019B5A60019B03F1140243
:1043E000019B9A60019B0C330A2200211846FFF7BB
:1043F000BFFB019B14330B2200211846FFF7B8FBCB
:104400000220FEF71EFA03461A46019B1A77019B0B
:1044100000225A77019B00229A77019B184603B02D
:104420005DF804FB5074000082B00190019B1846B7
:1044300002B0704782B00190034A019B1A60019B51
:10444000184602B0704700BFC48D000082B00190D2
:104450000091034A019B1A60019B184602B0704705
:10446000A88E000000B583B001900091019B009AD6
:1044700011461846FFF7EAFF074A019B1A60009BA6
:104480001A79019B1A71009B5A79019B5A71019B01
:10449000184603B05DF804FB4470000010B582B00C
:1044A00001900091019B1846FFF7C4FF344A019B1D
:1044B0001A60019B03F11002019B5A60019B03F1FA
:1044C0001802019B9A60019B03F12002019BDA60B4
:1044D000019B03F110040098FFF7A6FF0246134664
:1044E0005B001344DB00274A134419462046FFF7BC
:1044F000B9FF019B03F118040098FFF795FF0246EE
:1045000013465B001344DB0008331E4A134419466C
:104510002046FFF7A7FF019B03F120040098FFF757
:1045200083FF024613465B001344DB001033154A39
:10453000134419462046FFF795FF019B009A9A62A3
:10454000019B002283F82C20019B002283F82D2060
:10455000019B002283F82E20019B002283F82F204C
:10456000019B002283F83020019B002283F8312038
:10457000019B002283F83220019B184602B010BD37
:10458000A88D0000908C000000B585B00190019BC3
:104590009B6A0293019B93F82E30022B03D10723D1
:1045A0008DF80F3004E0019B93F82D308DF80F301B
:1045B000684B1B68D3F8C4206749029B0B441B78E7
:1045C000194601238B40DB431946624B1B680A40A6
:1045D000C3F8C4205F4B1B68D3F8C4205E49029B1C
:1045E0000B441B78194601238B401946594B1B6815
:1045F0000A43C3F8C420594A029B52F823301A696F
:104600005649029B51F8233022F0FF021A61534AA7
:10461000029B52F823301A69019B93F832301846F6
:104620004E49029B51F8233002431A61019B58689E
:10463000019B5B681B681B684949029A0A4412780F
:1046400011469847019B9868019B9B681B681B68F3
:104650004349029A0A44127811469847019BD86848
:10466000019BDB681B681B683D49029A0A4412786B
:1046700011469847394A029B52F823301B68374944
:10468000029A51F822201B0C1B041360334A029B30
:1046900052F823301A689DF80F10019B93F82E30C2
:1046A0001B010B4318462D49029B51F8233002434E
:1046B0001A602A4A029B52F823301A68019B93F829
:1046C0002F309901019B93F83030DB010B431846E2
:1046D0002249029B51F8233002431A601F4A029B71
:1046E00052F823301A68019B93F831301B021846A8
:1046F0001A49029B51F8233002431A60174A029B61
:1047000052F823305A681549029B51F8233042F081
:1047100002025A60114A029B52F823305A680F492C
:10472000029B51F8233022F004025A600B4A029B8C
:1047300052F823305A68019B93F82C309B0018469E
:104740000649029B51F8233002435A6000BF05B06E
:104750005DF804FB90010010D88C0000840100106B
:104760008C8C000000B583B00190019B9B6A1846B9
:10477000FFF75AFE0246074B53F82230DB6803F07E
:104780001003002B14BF01230023DBB2184603B033
:104790005DF804FB8401001000B585B001900B4664
:1047A000ADF80230019B9B6A1846FFF73DFE0346B9
:1047B00003930E4A039B52F82330BDF802209A60FF
:1047C000019B1B6804331B68019898470346002B24
:1047D00001D000BFF4E7054A039B52F823309B68E1
:1047E0009BB2184605B05DF804FB00BF84010010C1
:1047F00082B00190084611461A4603468DF80330F0
:104800000B468DF8023013468DF80130019B9DF860
:10481000032083F82C20019B9DF8022083F82E2092
:10482000019B9DF8012083F82D2000BF02B0704746
:1048300082B00190084611461A4603468DF80330AF
:104840000B468DF8023013468DF80130019B9DF820
:10485000032083F82F20019B9DF8022083F830204D
:10486000019B9DF8012083F83120019B9DF80820D1
:1048700083F8322000BF02B0704782B00190084632
:1048800011461A4603468DF803300B468DF8023068
:1048900013468DF80130019A13789DF8101061F3DA
:1048A00000031370019A13789DF8031061F341031C
:1048B0001370019A13789DF8021061F3820313704C
:1048C000019A13789DF8011061F3C3031370019BE3
:1048D0009DF80C205A70019B9DF808209A70019B4E
:1048E000184602B0704782B0019000BF02B0704716
:1048F00082B0019000BF02B0704782B0019000BF4B
:1049000002B0704782B00190034A019B1A60019B7C
:10491000184602B0704700BF7C8D000000B583B020
:104920000190019B1846FFF7EDFF194A019B1A60A1
:10493000019B03F11002019B5A60019B03F14402A9
:10494000019B9A60019B03F15002019BDA60019B7D
:10495000103301211846FFF7A1FD019B44331622B5
:1049600001211846FFF72EFA019B5033192201212D
:104970001846FFF727FA019B5C3340F2C162002121
:10498000184601F051FE019B184603B05DF804FB88
:10499000508D000082B001908023184602B070470D
:1049A00082B001904023184602B0704700B589B02C
:1049B000059007A80123029301230193012300938B
:1049C000012301220121FFF758FF06AB07AA126855
:1049D000114619800233120C1A7000239DF818201A
:1049E00062F307039DF8192062F30F239DF81A2044
:1049F00062F31743184609B05DF804FB00B587B0B1
:104A00000390029101920093039BDA68039BDB6899
:104A10001B6814331B680199C9B210469847039B61
:104A20009A68039B9B681B6810331B681046984765
:104A300000230593059A009B9A421BD2009A059B7E
:104A4000D31A03F10053013BDB00029A22FA03F36D
:104A50008DF81330039B5A68039B5B681B6808330F
:104A60001B689DF8131089B210469847059B0133C7
:104A70000593DFE7039B9A68039B9B681B680C33D5
:104A80001B681046984700BF07B05DF804FB00B5EF
:104A900083B0019001230022AE210198FFF7AEFF01
:104AA000022300224DF280510198FFF7A7FF022355
:104AB00000224AF63F010198FFF7A0FF02230022DF
:104AC0004FF453410198FFF799FF01230022402141
:104AD0000198FFF793FF0223002248F61451019832
:104AE000FFF78CFF01230022A1210198FFF786FF29
:104AF00001230022C8210198FFF780FF0223002232
:104B00004DF612210198FFF779FF0223002248F2A7
:104B1000CF110198FFF772FF022300224DF6F11129
:104B20000198FFF76BFF022300224DF640310198F8
:104B3000FFF764FF019800F067F801230022A42129
:104B40000198FFF75BFF01230022A6210198FFF7E0
:104B500055FF01230022AF210198FFF74FFF00BF4F
:104B600003B05DF804FB10B584B00390039B9A6812
:104B7000039B9B681B6804331B6810469847039B84
:104B8000DA68039BDB681B6804331B681046984790
:104B9000039B9A68039B9B681B680C331B68104639
:104BA0009847039BDA68039BDB681B680C331B6820
:104BB00010469847039B5868039B5B681B680C333F
:104BC0001C68072300220021A047039B5868039B11
:104BD0005B681B6810331C68302300936423002239
:104BE0000021A047039B5A68039B5B681B681B68F6
:104BF00010469847039800F025F80398FFF747FF01
:104C000000BF04B010BDFFFF00B583B001900223C8
:104C100000224FF400510198FFF7F0FE0323002219
:104C200006490198FFF7EAFE032300220449019890
:104C3000FFF7E4FE00BF03B05DF804FB7F00210036
:104C40000700220000B583B00190019B5C3340F265
:104C5000C1620021184601F0E7FC00BF03B05DF817
:104C600004FB00B583B00190019B5C3340F2C1624C
:104C7000FF21184601F0D8FC00BF03B05DF804FB2B
:104C80008CB00390029101920093019B03F0070303
:104C90000B93019BDB100A9301220B9B02FA03F397
:104CA000DB4309939DF80230002B14BF012300233E
:104CB0008DF823309DF823200B9B02FA03F3079312
:104CC0000A9A13465B0113449B001344029A13444F
:104CD0005833039A134404330693069B1B781A46F1
:104CE000099B1340079A13430593059BDAB2069B71
:104CF0001A7000BF0CB0704700B585B001900198E4
:104D0000FFF782FF00230393039B072B1ED800238A
:104D10000293029B7F2B15D80199039A13465B01DE
:104D200013449B001344CA18029B13445C331B7842
:104D30001946012301220198FFF760FE029B01330F
:104D40000293E6E7039B01330393DDE700BF05B061
:104D50005DF804FB00B583B0019001230022A72178
:104D60000198FFF74BFE00BF03B05DF804FB00B5F0
:104D700087B00390039B1846FDF710FE039800F0E0
:104D80003DF8039800F0F8F903468DF817300398C2
:104D900000F01AFA03468DF81630039800F082FAF4
:104DA00003468DF81530039800F08AF803468DF815
:104DB00014309DF815009DF816209DF817109DF8E9
:104DC000143000930346039800F024F900BF07B0A5
:104DD0005DF804FB82B001900B468DF803309DF81E
:104DE0000330002B01D0034B00E0034B184602B008
:104DF000704700BF208500002885000000B5ADF297
:104E00002C7D01AB186002AB1846FFF787FD2248E6
:104E1000FDF7C2FC2148FDF7BFFC2148FDF7BCFCB3
:104E200002AB1846FFF79FFE1E48FDF7B5FC02AB2C
:104E30001846FFF716FF1C48FDF7AEFC02AB1846FC
:104E4000FFF75AFF1948FDF7A7FC02AB1846FFF71A
:104E5000F9FE1548FDF7A0FC02AB1846FFF74CFF22
:104E60004FF47A704FF00001FEF7FAFE1048FDF79C
:104E700093FC02AB1846FFF76DFF0E48FDF78CFC64
:104E80000D48FDF789FC0D48FDF786FC00BF0DF2CB
:104E90002C7D5DF804FB00BF3085000058850000C4
:104EA00078850000A0850000C8850000E08500002E
:104EB000088600003486000078860000B88600006E
:104EC00000B599B003904D48FDF766FC4C48FDF7DE
:104ED00063FC0AAB02211846FFF7E0FA494B07933F
:104EE000494B089301238DF824300A238DF825308F
:104EF00000238DF85F3007AB1846FEF7B1FF07AB14
:104F00001846FEF7EDFF0AA8072300220021FFF74D
:104F10006FFC0AA830230093642300220021FFF7CE
:104F200087FC0AAB1846FFF72FFB07AB1846FEF7C6
:104F3000EBFF4FF001004FF00001FEF791FE0AABCE
:104F40009F211846FFF728FC0AAB00211846FFF7FF
:104F500023FC0346DBB28DF814300AAB002118465F
:104F6000FFF71AFC0346DBB28DF815300AAB0021BF
:104F70001846FFF711FC0346DBB28DF816300AAB7A
:104F800000211846FFF708FC0346DBB28DF8173006
:104F90009DF8143019469DF815301A469DF81630C4
:104FA00018469DF81730009303461848FCF754FB49
:104FB00007AB1846FEF794FF4FF001004FF00001D9
:104FC000FEF74EFE1248FDF7E7FB9DF814301F2B4D
:104FD0000ED19DF81530402B0AD19DF81630002BCC
:104FE00006D19DF81730002B02D101238DF85F30D8
:104FF0009DF85F30184619B05DF804FB308500005D
:10500000D48600001C8E0000488E0000F886000048
:105010002487000000B591B00190084611461A4659
:1050200003468DF803300B468DF8023013468DF899
:105030000130474B0393474B0493474B059302239F
:105040008DF8183003238DF81930424B0793424BEB
:10505000089301238DF824301A238DF825303D4B19
:105060000A933D4B0B9301238DF8303018238DF8B4
:105070003130384B0D93384B0E9301238DF83C3073
:1050800012238DF83D3003AB1846FEF7B7FF9DF8AD
:105090000330002B05D003AB012200211846FFF797
:1050A00085F89DF80230002B05D003AB01220121C9
:1050B0001846FFF77BF89DF80130002B05D003ABB5
:1050C000012202211846FFF771F89DF84830002BA5
:1050D00005D003AB012203211846FFF767F81F48EC
:1050E000FDF75AFB1E48FDF757FB9DF803301946A4
:1050F0000198FFF76FFE034619461A48FCF7ACFA11
:105100009DF8023019460198FFF764FE03461946E0
:105110001548FCF7A1FA9DF8013019460198FFF7F0
:1051200059FE034619461148FCF796FA1048FDF758
:1051300033FB9DF8483019460198FFF74BFE0346B4
:1051400019460C48FCF788FA00BF11B05DF804FB63
:10515000F88D00001C8E0000488E0000448700007F
:105160006C8700007487000088870000A08700001B
:10517000B8870000BC87000000B585B001900F48DB
:10518000FDF70AFB0E48FDF707FB92238DF80F3061
:1051900000238DF80E30AB2392223921019800F0C4
:1051A000CFF803468DF80E300648FDF7F5FA9DF866
:1051B0000E30184605B05DF804FB00BF30850000D6
:1051C000CC870000F087000000B585B001900F4843
:1051D000FDF7E2FA0E48FDF7DFFA0D238DF80F30E8
:1051E00000238DF80E302A230D221C21019800F097
:1051F000A7F803468DF80E300648FDF7CDFA9DF866
:105200000E30184605B05DF804FB00BF3085000085
:10521000108800003088000082B001900091034A9D
:10522000019B1A60019B184602B07047E08D000098
:1052300000B583B001900091019B009A1146184679
:10524000FFF7EAFF164A019B1A60009B5A68019B10
:105250005A60009B9A68019B9A60019B03F10C02C3
:10526000009B0C3319461046FFF7FCF8019B03F135
:105270001402009B143319461046FFF7F3F8009B05
:105280001A7F019B1A77009B5A7F019B5A77009BDC
:105290009A7F019B9A77019B184603B05DF804FB47
:1052A0005074000000B58FB001902148FDF774FAEA
:1052B0002048FDF771FAC0238DF8373000238DF8B0
:1052C00036301423C0223121019800F039F803460A
:1052D0008DF83630019A03AB11461846FFF7A8FF48
:1052E00003AB1946019800F063F80C900C9B13F186
:1052F000270F04DB0C9B7C2B01DC012300E0002347
:105300008DF82F300C990C48FCF7A6F90B48FDF7E7
:1053100043FA9DF83630002B05D09DF82F30002B36
:1053200001D0012300E0002318460FB05DF804FB14
:1053300030850000508800007088000088880000D8
:1053400000B589B00590084611461A4603468DF807
:1053500013300B468DF8123013468DF811300023B0
:105360008DF81F3005980DF112029DF813104FF4BF
:105370007A730293012301930DF11F03009301231C
:10538000FDF754FC9DF81F3019460848FCF764F9F6
:105390009DF81F309DF811209A420CBF0123002375
:1053A000DBB2184609B05DF804FB00BFA48800001A
:1053B00000B58BB005900491294B1B68089308AA8F
:1053C0004FF47A730093042331210498FDF7DAFB3C
:1053D000C1238DF81F30C2238DF81E30002309939E
:1053E0000DF11F024FF47A730293012301930DF123
:1053F0001F030093012331210498FDF717FC0DF1E1
:105400001E024FF47A730293012301930DF11E03E0
:105410000093012331210498FDF708FC9DF81F300B
:105420001B0203F4FE439DF81E20134309939DF8CD
:105430001F3019469DF81E301A46099B0948FCF793
:105440000BF9099BA3F58043074A82FB03129211D3
:10545000DB17D31A373318460BB05DF804FB00BFD7
:10546000EC880000BC8800006766666600B585B001
:1054700001900F4B1B7883F00103DBB2002B13D19B
:1054800000230393019A039B13441B78002B0CD039
:10549000019A039B13441B7819460648FCF7D6FE75
:1054A000039B01330393EDE700BF05B05DF804FBF8
:1054B000AC050010940100100FB400B5C5B0114B3D
:1054C0001B7883F00103DBB2002B01D0002313E033
:1054D0004FF48073439347AA01AB1A6001AB02A853
:1054E0001B68469A4FF48071FCF7CEF8429002ABED
:1054F0001846FFF7BBFF429B184645B05DF804EB2A
:1055000004B07047AC05001082B001900F2318461C
:1055100002B0704700B585B08DED010A224B0393B0
:10552000002302932148FFF7EFFF0246029B9342BC
:1055300034BF01230023DBB2002B2CD01B4A029B7B
:105540009B001344D3ED007A9FED197A67EE877ABA
:105550009DED017AB4EEE77AF1EE10FA17DB134A0B
:10556000029B9B001344D3ED007A9FED127A67EE05
:10557000877A9DED017AB4EEE77AF1EE10FA06D85B
:105580000A4A029B9B0013441B68039303E0029B9F
:1055900001330293C6E7039B07EE903AB0EE670A29
:1055A00005B05DF804FB00BF000016470C8D00003D
:1055B0006666663FCDCC8C3F82B00190019B062B86
:1055C00002DD0623019304E0019B002B01DC012393
:1055D0000193019B013B0193064B1B6823F470432D
:1055E000019A12031146034A0B43136000BF02B035
:1055F000704700BF00C00F4000B583B00190019B11
:105600001846FEF7DBFE019B184603B05DF804FB6D
:1056100000B5ADF5004DA7B0E24B0DF5004202F12B
:1056200060021360E04B0DF5004202F1640213606A
:1056300001230DF5004202F16802137013230DF5EA
:10564000004202F169021370D64B0DF5004202F1DF
:1056500054021360D44B0DF5004202F1580213605E
:1056600001230DF5004202F15C0213700F230DF5CA
:10567000004202F15D021370CA4B0DF5004202F1C7
:1056800048021360C84B0DF5004202F14C02136052
:1056900000230DF5004202F1500213701E230DF598
:1056A000004202F151021370BE4B0DF5004202F1AF
:1056B0003C021360BC4B0DF5004202F14002136046
:1056C00000230DF5004202F1440213701D230DF575
:1056D000004202F1450213700DF5004303F160032F
:1056E000043301211846FCF7EBFA0DF5004303F1F2
:1056F00060031846FEF78CFB0DF5004303F15403DD
:10570000043301211846FCF7DBFA0DF5004303F1E1
:1057100054031846FEF77CFB0DF5004303F14803E4
:10572000043301211846FCF7CBFA0DF5004303F1D1
:1057300048031846FEF76CFB0DF5004303F13C03EC
:10574000043301211846FCF7BBFA0DF5004303F1C1
:105750003C031846FEF75CFB0DF5004303F13C03E8
:105760001846FEF733FC03461A46904B1A70904BCE
:105770000DF5004202F1080213608A4B0DF500425C
:1057800002F10C021360884B0DF5004202F1100289
:10579000136002230DF5004202F11402137003237B
:1057A0000DF5004202F1150213707E4B0DF500421B
:1057B00002F1180213607C4B0DF5004202F11C024D
:1057C000136001230DF5004202F1200213701A2329
:1057D0000DF5004202F121021370724B0DF50042EB
:1057E00002F124021360704B0DF5004202F1280211
:1057F000136001230DF5004202F12C0213701823EF
:105800000DF5004202F12D021370664B0DF50042BA
:1058100002F130021360644B0DF5004202F13402D4
:10582000136001230DF5004202F1380213701223B8
:105830000DF5004202F1390213700DF5004303F13A
:1058400008031846FEF7DAFB0DF5004303F10803E1
:1058500000211846FEF734FD4FF416415548FCF779
:1058600089FC4FF4E1315448FCF784FC5348FFF7BE
:1058700023FE4FF4FA714F48FCF726FDFF214D48F7
:10588000FCF7E4FC4FF4FA714A48FCF71DFD0346AF
:10589000552B0CBF01230023DBB2002B00F02E811F
:1058A0000620FFF789FEAA214248FCF7CFFC4FF4FF
:1058B000FA714048FCF708FD03460DF5004202F17D
:1058C000040213704FF4FA713A48FCF7FDFC0346EA
:1058D0000DF5004202F1050213704FF4FA713548DC
:1058E000FCF7F2FC03460DF5004202F106021370CC
:1058F0004FF4FA712F48FCF7E7FC03460DF5004220
:1059000002F1070213700DF5004303F104031B7845
:1059100019462848FCF79AFC4FF001004FF00001AF
:10592000FEF79EF90DF5004303F104031B781946B9
:105930002348FFF7C1FD0DF5004303F104031B6885
:1059400007EE903AF8EE677A0DF5004303F18C0309
:10595000C3ED007A0DF5004303F18C03D3ED007A1B
:10596000B7EE007A77EE877ADFED166A86EEA77AD1
:10597000F3EE006AC7EE267A0DF5004303F18803C3
:10598000C3ED007A0DF5004303F1880393ED000A9F
:10599000FFF7C0FDF0EE407AFCEEE77A17EE903AA2
:1059A00012E000BF1C8E0000488E0000AC05001005
:1059B000F88D00005800001094010010AC89000020
:1059C000D0890000001B374C0DF5004202F1840223
:1059D00013600DF5004303F1840319689B48FCF73D
:1059E0006FFB4FF4FA704FF00001FEF739F9984859
:1059F000FCF7D2FE00230DF5004202F1970213706E
:105A000010230DF5004202F1900213600DF50043E2
:105A100003F197031B78002B60D126AB943B18460B
:105A200000F05CF903460DF5004202F19702137095
:105A300026AB943B08220DF5004101F19001096865
:105A4000184600F0F7FA0DF5004303F180031860E3
:105A50000DF5004303F180031B68002B0BD10DF5FE
:105A6000004303F1080300211846FEF729FC79489A
:105A7000FFF7FCFC26E00DF5004303F180031B68F3
:105A80000DF5004202F17F0213700DF5004303F1A2
:105A90007F031A780DF5004303F1080311461846F9
:105AA000FEF70EFC6C4A0DF5004303F180031B6802
:105AB00052F8233019466948FFF7FEFC5E2163481F
:105AC000FCF7C4FB0DF5004303F190031B680133A1
:105AD0000DF5004202F19002136097E76048FFF76E
